:020000040800F2
:10000000D8070020290200084714000881130008BF
:10001000451400081F040008251A0008000000000D
:100020000000000000000000000000004B14000869
:10003000DD04000800000000491400084D14000809
:10004000430200084302000843020008430200087C
:10005000430200084302000843020008430200086C
:10006000430200084302000843020008430200085C
:10007000430200084302000843020008430200084C
:10008000430200084302000843020008430200083C
:10009000430200084302000843020008430200082C
:1000A000430200084302000843020008430200081C
:1000B000430200084302000843020008430200080C
:1000C00043020008430200084302000843020008FC
:1000D00043020008D919000843020008430200083F
:1000E00043020008430200084302000843020008DC
:1000F00043020008430200084302000843020008CC
:1001000043020008430200084302000843020008BB
:1001100043020008430200084302000843020008AB
:1001200043020008430200082104000843020008BB
:10013000430200084302000843020008430200088B
:10014000430200084302000843020008430200087B
:1001500043020008430200082D040008430200087F
:10016000430200084302000843020008430200085B
:100170004302000843020008430200080000000098
:10018000430200084302000800F002F800F03CF8C7
:100190000AA090E8000C82448344AAF10107DA45E2
:1001A00001D100F031F8AFF2090EBAE80F0013F0F8
:1001B000010F18BFFB1A43F0010318472C19000068
:1001C0004C190000103A24BF78C878C1FAD85207F9
:1001D00024BF30C830C144BF04680C6070470000C1
:1001E0000023002400250026103A28BF78C1FBD840
:1001F000520728BF30C148BF0B6070471FB501F0E0
:100200005DFC1FBD10B510BD00F0D4F81146FFF71E
:10021000F5FF01F019FC00F0F2F803B4FFF7F2FF6C
:1002200003BC00F0F5F80000094880470948004782
:10023000FEE7FEE7FEE7FEE7FEE7FEE7FEE7FEE796
:10024000FEE7FEE704480549054A064B70470000F3
:10025000D914000889010008D8010020D80700201F
:10026000D8030020D803002053EA020C00F0698074
:100270002DE9F04B4FF00006002B1FBFB3FA83F5BA
:1002800003FA05F424FA05F65E4012BF1643B2FAEB
:1002900082F502FA05F4C5F120051EBF22FA05FC1D
:1002A00044EA0C04203556EA044C4FEA144418BFC3
:1002B000641C4FF000084FF00009904271EB030CF2
:1002C00039D3002919BFB1FA81F701FA07F6B0FA5C
:1002D00080F700FA07F6C7F120071EBF20FA07FCD7
:1002E00046EA0C062037B6FBF4FCA7EB0507103FE7
:1002F00007F01F0BCBF120060CFA0BFB2CFA06F6CD
:1003000044BFB3460026202FA4BF5E464FF0000B2B
:100310005BEA060C08BF4FF0010B19EB0B09ABFBB6
:10032000027C48EB0608C01B06FB02CC0BFB03CC8F
:1003300071EB0C01C1E70B46024641464846BDE859
:10034000F08B13B54FF000004FF00001AFF30080C9
:10035000BDE81C4070474FF0000200B513469446BC
:100360009646203922BFA0E80C50A0E80C50B1F10D
:100370002001BFF4F7AF090728BFA0E80C5048BF21
:100380000CC05DF804EB890028BF40F8042B08BFBF
:10039000704748BF20F8022B11F0804F18BF00F8BB
:1003A000012B704770477047704700000048704746
:1003B000780100207546FFF7F9FFAE460500694653
:1003C000534620F00700854618B020B5FFF73AFFE6
:1003D000BDE820404FF000064FF000074FF0000846
:1003E0004FF0000B21F00701AC46ACE8C009ACE8C7
:1003F000C009ACE8C009ACE8C0098D46704710B52B
:100400000446AFF300802046BDE81040FFF705BF6B
:1004100001491820ABBEFEE7260002007047FEE748
:10042000014800F06FB80000B8000020014800F05B
:1004300069B800001801002001681823CAB2103AF8
:10044000B2FBF3F2054B6FF30901032A9B5CC36512
:1004500000D9091D8165084670470000C61A0008CA
:1004600010B5014600208B698A6A4FF0C07453B101
:10047000B3F5005F15D072B1012A0CD0022A0AD060
:10048000032A09D104E01AB1012A06D0022A03D1B5
:10049000C96AC90100D5012010BDC96AA142FAD0BC
:1004A00010BD002AF7D0012AF2D0022AF3D0032A85
:1004B000F3D010BD30B50468256825F4802525608B
:1004C000046863608368402B036803D09960006808
:1004D000C26030BD9A600068C16030BD704770472F
:1004E00090F83510022903D0802141650120704722
:1004F000052180F835100068016821F001010160D4
:10050000002070472DE9F84304464FF00009CDF86C
:10051000009063484FF41651A56D0068B0FBF1F7E9
:100520002E6894F85C10082000FA01F131420FD0D7
:1005300021680A6852070BD50A6822F004020A6093
:1005400094F85C108840A860606D40F00100606520
:1005500094F85C104FF0010808FA01F0304208D01E
:1005600021684969090604D5A860606D40F0020061
:10057000606594F85C1004208840304208D02168FF
:100580000968890704D5A860606D40F004006065C3
:1005900094F85C1010208840304218D02168096817
:1005A000090714D5A86020680168490304D50068CC
:1005B000000308D5A16C07E00168C90503D40168F0
:1005C00021F008010160216C09B12046884794F8A8
:1005D0005C1020208840304231D021680968C9066B
:1005E0002DD5A86094F8350005282068016806D04C
:1005F000490347D5006800031DD4616C1CE021F05D
:10060000160101602068416921F080014161206C80
:1006100008B9A06C20B12068016821F008010160D0
:1006200094F85C103F208840A86084F8349084F8E7
:100630003580216D1FE0E16B09B120468847606D70
:1006400000282BD0606DC00714D0052084F8350039
:100650002068016821F0010101600098401C0090B1
:10066000B84203D820680068C007F6D184F83490F7
:1006700084F83580E16C002910D001B02046BDE837
:10068000F04308470168C905D5D4016821F010017D
:10069000016084F8349084F83580CCE7BDE8F883B5
:1006A000100000202DE9F041044600F079F90646DB
:1006B0005CB1002584F83450022084F835002068AD
:1006C000016821F0010101600DE00120BDE8F08129
:1006D00000F066F9801B052805D9202060650320FD
:1006E00084F83500F2E720680068C007F0D122687E
:1006F000116820480140D4E901031843D4E90336C6
:100700003343184363691843A3691843E3691843E3
:10071000236A18430843616A042903D1D4E90B13FF
:1007200019430843106020684069666A20F0070199
:1007300030460E43012704280CD1A06A0643E06A24
:1007400040B12046FFF78CFE20B14020606584F860
:100750003570BAE7206846612046FFF76DFE94F8D1
:100760005C203F2191408160656584F835700020F0
:10077000ACE700003F8010F02DE9F0410446866DA3
:1007800090F83400002501280DD0012084F83400B1
:1007900094F835700020012F07D084F8340002252A
:1007A0002846BDE8F0810220FBE7022784F8357077
:1007B00060652046FFF77EFE94F85C103F2088407D
:1007C000B0602068016841F016010160206841694D
:1007D00041F080014161206C20B12068016841F046
:1007E000080101602068016841F001010160D7E75C
:1007F0002DE9F84FDFF87CB100224FF001084FF0EF
:10080000030A4FF00F090BF1040E00BF0B6808FA42
:1008100002F42340A3426ED14D68022D01D0122D67
:100820000ED1D50800EB850CDCF820505607F70EEA
:1008300009FA07F6B5430E69BE402E43CCF8206096
:10084000066855000F790AFA05FC07F0030726EA47
:100850000C06AF40374307604E68012E05D0022ECC
:1008600003D0112E01D0122E0ED18668CF6826EA51
:100870000C06AF40374387604668A6430C79C4F343
:100880000014944034434460C6688C6826EA0C0621
:10089000AC403443C4604C68E40065D5364C2568F0
:1008A00045F480452560246822F0030504F4804463
:1008B0000094324C2E19D6F8084895072F0F09FAE4
:1008C00007F5AC432E4DA84201D1002524E02D4D63
:1008D000A84201D101251FE02B4DA84201D10225DC
:1008E0001AE02A4DA84201D1032515E0284DA8425F
:1008F00002D1042510E037E0264DA84201D105259C
:100900000AE0254DA84201D1062505E0234DA84265
:1009100001D1072500E00825BD402543C6F8085849
:10092000DBF800405D464E689C43F60300D51C434F
:100930002C60DEF8004075464E689C43B60300D537
:100940001C432C600B4D08352C684E689C43F60206
:1009500000D51C432C60074D0C352C684E689C4319
:10096000B60200D51C432C60521C102AFFF44EAF77
:10097000BDE8F88F003C014044380240003001409F
:10098000000002400004024000080240000C024047
:10099000001002400014024000180240001C0240F7
:1009A0000148806870470000040000200248816808
:1009B0000278114481607047040000200B4810B594
:1009C000016841F400710160016841F480610160D7
:1009D000016841F480710160032000F06FF800208D
:1009E00000F006F800F024F8002010BD003C0240A2
:1009F00070B50D4D04464FF47A712878B1FBF0F0D4
:100A00000A490968B1FBF0F000F0E0FA48B9102C8F
:100A100007D200222146501E00F030F800206C6002
:100A200070BD012070BD00000400002010000020F7
:100A30000A4808B5016841F480410160006800F48B
:100A4000804000900548001F016841F0805101601E
:100A5000006800F08050009008BD0000443802405B
:100A6000002809DB00F01F020121914040098000AD
:100A700000F1E020C0F8001170470000F0B40E4B08
:100A80001B680C46C3F30223C3F10705042D00D9EC
:100A90000425191D072901D2002300E0DB1E0126D1
:100AA00006FA05F1491E214099409E40761E1640E7
:100AB0003143F0BC00F0B7BF0CED00E0064900F098
:100AC000070208684FF6FF03184040EA0220034A75
:100AD00010430860704700000CED00E00000FA05CC
:100AE0002DE9F0470E46050065D0DFF81481D8F8EF
:100AF0000000F7B200F00F00B04207D288F8007093
:100B0000D8F8000000F00F00B04254D128683D4CE6
:100B1000810712D5400703D5206840F4E0502060DB
:100B20002878000703D5206840F4604020602068E2
:100B3000A96820F0F000084320602878C0072DD075
:100B4000304968680839012812D0022813D00328D8
:100B500011D00968890700292DDA216821F00301E5
:100B600001432160FFF71CFF814641F2883A0EE005
:100B700009688903EFE709688901ECE7FFF710FFCF
:100B8000A0EB0901514502D90320BDE8F087206898
:100B9000696800F00C00B0EB810FEFD1D8F80010BD
:100BA000404601F00F01B14207D90770006800F01C
:100BB0000F00B04201D00120E7E72878400705D5B3
:100BC0002068E96820F4E050084320602878000796
:100BD00006D52068296920F4604040EAC100206001
:100BE00000F036F82168084AC1F30311515CC8408F
:100BF000064908600020FFF7FBFE0020C5E7000063
:100C0000003C024008380240CE1A000810000020C4
:100C10000448054900680968044AC1F38221515C0F
:100C2000C84070471000002008380240DE1A000853
:100C30000448054900680968044AC1F34231515C1F
:100C4000C84070471000002008380240DE1A000833
:100C5000154810B5006810F00C02144813D041106C
:100C6000042A0FD0082A0ED10F4C241F22682368B3
:100C700002F03F025B0207D52068C0F38810A0FB9A
:100C8000010106E0084610BD2168C1F38811A1FBEF
:100C900000010023FFF7E8FA2168C1F30141491C74
:100CA0004900B0FBF1F010BD083802400024F40008
:100CB0002DE9F84F050076D02878DFF8F8B2BE4C61
:100CC000C00749D0DBF800105846C1F38101012963
:100CD00008D00068C0F3810002280AD1201D0068F6
:100CE000400206D52068800336D568680028E2D027
:100CF00032E06868B0F5803F10D0B0F5A02F2068D2
:100D000010D020F480302060206820F48020206003
:100D10006868A0B1FFF744FE06460CE0206840F486
:100D20008030F4E740F480202060F7E7FFF738FEDA
:100D3000801B642873D820688003F7D50CE0FFF788
:100D40002FFE064605E000BFFFF72AFE801B642841
:100D5000F0D820688003F7D42878DFF86082800715
:100D60004FF000093ED5DBF80010584611F00C0F8B
:100D700009D00068C0F3810002280BD18D48001F04
:100D80000068400206D42068800715D5E86801286D
:100D900009D111E0E868B8B10120C8F80000FFF7F8
:100DA000FFFD064605E002E1FFF7FAFD801B022881
:100DB000C0D820688007F7D52068296920F0F8009E
:100DC00040EAC10020600DE0C8F80090FFF7E8FDA0
:100DD000064604E0FFF7E4FD801B02281FD82068C8
:100DE0008007F7D42878000722D5724E74486969C5
:100DF0006C3671B101210160FFF7D2FD074604E0B6
:100E0000FFF7CEFDC01B022809D830688007F7D550
:100E10000EE0C0F80090FFF7C3FD074605E083E051
:100E2000FFF7BEFDC01B02287ED830688007F7D4CC
:100E30002878400768D5DFF87CA100270AF1380A36
:100E4000DAF80000C0000BD4DAF8001041F080514D
:100E5000CAF80010DAF80000012700F08050009076
:100E6000584E3068C00510D4306840F4807030604F
:100E7000FFF796FD009005E0FFF792FD0099401AFC
:100E8000022851D83068C005F6D54A4EA8686836A1
:100E900001280FD00528306810D020F00100306004
:100EA000306820F004003060A868B8B1FFF778FD22
:100EB00000900FE0306840F00100F4E740F00400DB
:100EC0003060F7E7FFF76CFD0099411A41F2883076
:100ED000814264D830688007F4D50EE0FFF760FDEA
:100EE000009007E0FFF75CFD0099411A41F288305D
:100EF000814254D830688007F4D42FB1DAF800105A
:100F000021F08051CAF80010A869C0B3DBF80010C6
:100F1000C1F3810102294AD00228484607D0C8F807
:100F20006000FFF73DFD00E039E005463AE0474646
:100F3000C8F86000FFF734FD064604E0FFF730FD17
:100F4000801B02282BD820688001F7D4D5E907013F
:100F50000843A96A1C4A490802EB01416A6A41EA4E
:100F60008211084395F82C1040EA01611148001FD6
:100F7000016001203866FFF713FD054605E014E027
:100F8000FFF70EFD401B022809D820688001F7D525
:100F90000BE000BFFFF704FD401B022802D903202D
:100FA000BDE8F88F20688001F4D40020F8E7012024
:100FB000F6E70000083802400038024000004742CF
:100FC000800E4742007000400000FFFF10B5401E39
:100FD000B0F1807F01D3012010BD4FF0E0246061AB
:100FE0000F21601700F01FFD0020A0610720206185
:100FF000002010BD7047000070B5026804461068FC
:10100000D168536910F00F0F51D003F0010501F4BE
:10101000907635435DD0C20705D0CA0503D5E26B93
:1010200042F00102E263420705D5DA0703D0E26B22
:1010300042F00202E263820705D5DA0703D0E26BD1
:1010400042F00402E263020705D5DA0703D0E26B3F
:1010500042F00802E263E26B002A34D0800604D535
:10106000880602D5204600F0E4FA20684069E16B6A
:10107000C0F3801001F008010143204624D000F0A5
:10108000C1FA2068416949061AD5416921F0400139
:101090004161606BA0B11B490165606BFFF720FAED
:1010A000002810D0606B016DBDE8704008478306D2
:1010B0000FD58B060DD52046BDE8704000F0B9BABB
:1010C0002046FFF797FF70BDFFF794FF0020E06315
:1010D00070BD030606D50B0604D52046BDE870405A
:1010E00000F048BC4006F3D54806F1D5D16820464B
:1010F00021F04001D160202184F8391000F03EF940
:1011000070BD00002D15000870B5040004D094F8DF
:101110003900002510B106E0012070BD84F8385078
:10112000204600F023F8242084F839002068C168A4
:1011300021F40051C160204600F0C6FA2068016920
:1011400021F4904101612068416921F02A01416147
:101150002068C16841F40051C160E563202084F833
:10116000390084F83A00002070BD00002DE9F043FA
:1011700087B0064614216846FFF7EDF8334930681A
:1011800088425FD132480025016841F010010160BA
:10119000006800F0100005902D481438016841F0F7
:1011A000010101600068032700F0010005904FF481
:1011B000C0600090022001900120CDE902070720C5
:1011C000049069462348FFF713FB244C22484FF054
:1011D00000682060C4E901854FF48069C4E90359BF
:1011E00080156561C4E906500420C4E90850C4E9CB
:1011F0000A7520462563FFF755FA08B1FFF76FF926
:101200007463A663154C144860347830E4E802082F
:101210004020A4E82102114844F814596030A56127
:10122000E56125626562FFF73DFA08B1FFF757F9FE
:101230003463002202212520A663FFF71FFC25202E
:10124000FFF70EFC07B0BDE8F0830000001001407E
:10125000443802400000024040640240B8000020D0
:10126000F8B5044690F83A0020283CD1C1B3BAB38F
:1012700094F83800012836D0012084F83800A162A3
:10128000A2850025E563222084F83A00636B1748A5
:10129000D863636B16481864636B1648D864606B38
:1012A000134605650846666B216802463046091DEF
:1012B000FFF762FA206801684168009184F83850AD
:1012C000C16841F48071C1602068416941F0010149
:1012D00041612068416941F0400141610020F8BD51
:1012E000FFE70120FBE70220F9E70000871500086F
:1012F000C31500083D1500087047704770B50446D7
:1013000090F83900202830D169B362B394F83800DE
:1013100001282AD0012084F838002162A284E284C6
:101320000025E563212084F83900236B1048D86339
:10133000236B10481864236B0F48D864206B134646
:1013400005652668206B321DFFF716FA21686FF0DD
:101350004000086084F838502068416941F08001FD
:101360004161002070BD012070BD022070BD0000F1
:10137000CD150008FB1500083D15000870477047A3
:10138000FEE700000D4808B5016841F480010160E6
:101390000068002200F48000009011463A20FFF718
:1013A0006DFB3A20FFF75CFB002211464620FFF759
:1013B00065FBBDE808404620FFF752BB30380240CD
:1013C000114808B5016841F004010160016801F0AD
:1013D00004010091016841F080010160016801F0A1
:1013E00080010091016841F001010160016801F094
:1013F00001010091016841F002010160006800F004
:101400000200009008BD0000303802400C4810B5C2
:101410000A4901604FF4E1314160002181600C22F2
:10142000C160C0E904128161C161FFF76DFE00284F
:1014300003D0BDE81040FFF752B810BD00100140C6
:1014400078000020FEE7704770477047FFF7AEBA9C
:1014500030B593B030216846FEF77DFF14210CA80B
:10146000FEF779FF1A480025016841F080510160BC
:10147000006800F0805011901648016841F48041E6
:1014800001600068022400F4804011900120009067
:10149000000401908001CDE90640082008904FF437
:1014A000A870CDE9090404200B906846FFF700FC02
:1014B0000CA90F2081E831004FF4A0500F90E002FA
:1014C000109005210CA8FFF70BFB13B030BD0000F6
:1014D00040380240007000401048016841F470013B
:1014E00001600F48016841F0010101600C4A0021D0
:1014F0000832116002680B4B1A400260031D0A4A51
:101500001A60026822F48022026005480C300160F3
:1015100002495806803908607047000088ED00E0F5
:1015200000380240FFFFF6FE1030002410B5806B3B
:101530000021C185C184FFF75DFD10BD70B5846BCE
:101540002068406994F83910C0F3C01000252129A3
:1015500004D118B1E584204600F062F820684069A3
:1015600094F83A10C0F38010222904D118B1E5850F
:10157000204600F047F8E06B40F01000E0632046A2
:10158000FFF738FD70BD10B50146806B096809682A
:10159000C90513D40021C1850168CA6822F480728C
:1015A000CA6001684A6922F001024A6101684A6919
:1015B00022F040024A61202180F83A10FFF79CFE99
:1015C00010BD10B5806BFFF798FE10BD10B5014639
:1015D000806B09680968C9050CD40021C1840168C1
:1015E0004A6922F080024A610068C16841F0400106
:1015F000C16010BDFFF7C2FE10BD10B5806BFFF7D4
:10160000BEFE10BD0168CA6822F49072CA6001680B
:101610004A6922F001024A61202180F83A1070479D
:101620000168CA6822F0C002CA60202180F839101F
:10163000704710B590F83A10222901D0022010BD51
:101640008168B1F5805F11D00169002901681FD060
:10165000496801F07F03816A4A1C82620B70C18D68
:10166000491E0904090CC18518D02BE00269816A62
:10167000002A0268526805D0D2B20A80816A491CE9
:101680008162ECE7C2F308020A80816A891CF7E7ED
:101690004A68816A4B1C83620A70E0E70168CA6885
:1016A00022F02002CA600168CA6822F48072CA600F
:1016B00001684A6922F001024A61202180F83A104B
:1016C000FFF71AFE002010BD2DE9F0410446006826
:1016D0000169E26821F44051114301612169A06868
:1016E000E26908436169114322680843D16849F2FD
:1016F0000C6399430143D16020684169A26921F4D8
:10170000407111434161E2696425B2F5004F974889
:10171000974922684FF032083FD08A4201D0824276
:101720007CD1FFF785FA00EBC00101EB0010616886
:101730008900B0FBF1F6FFF77BFA00EBC00101EB8B
:10174000001061688900B0FBF1F0B0FBF5F06FF0BC
:101750001801484306EB800108EB0110B0FBF5F0DF
:1017600000F0F006FFF764FA00EBC00101EB001097
:1017700061688900B0FBF1F0B0FBF5F006EB0016F4
:10178000FFF756FA00EBC00101EB00106168890019
:10179000B0FBF1F7FFF74CFAD2E08A4201D0824267
:1017A0003DD1FFF745FA00EBC00101EB0010616885
:1017B0004900B0FBF1F0B0FBF5F00601FFF738FA95
:1017C00000EBC00101EB001061684900B0FBF1F7CC
:1017D000FFF72EFA00EBC00101EB00106168490031
:1017E000B0FBF1F0B0FBF5F06FF01801484307EBE8
:1017F000800108EBC100B0FBF5F000F0F80006EB4B
:101800004006FFF715FA00EBC00101EB001061681C
:101810004900B0FBF1F7FFF70BFA3CE055E0FFF7AA
:10182000F7F900EBC00101EB001061684900B0FB63
:10183000F1F0B0FBF5F00601FFF7EAF900EBC001AB
:1018400001EB001061684900B0FBF1F7FFF7E0F928
:1018500000EBC00101EB001061684900B0FBF1F042
:10186000B0FBF5F06FF01801484307EB800108EB7F
:10187000C100B0FBF5F000F0F80006EB4006FFF702
:10188000C7F900EBC00101EB001061684900B0FB33
:10189000F1F7FFF7BDF900EBC00101EB0010616843
:1018A0004900B0FBF1F0B0FBF5F06FF018014843D0
:1018B00007EB800108EBC100B0FBF5F000F007007A
:1018C000216830448860BDE8F081FFF7A1F900EBA2
:1018D000C00101EB001061688900B0FBF1F6FFF771
:1018E00097F900EBC00101EB001061688900B0FBC3
:1018F000F1F0B0FBF5F06FF01801484306EB800102
:1019000008EB0110B0FBF5F000F0F006FFF780F9EE
:1019100000EBC00101EB001061688900B0FBF1F041
:10192000B0FBF5F006EB0016FFF772F900EBC00113
:1019300001EB001061688900B0FBF1F7FFF768F96F
:1019400000EBC00101EB001061688900B0FBF1F011
:10195000B0FBF5F06FF01801484307EB800108EB8E
:101960000110B0FBF5F000F00F00A9E700140140F2
:101970000010014090F83910212901D00220704751
:101980008168B1F5805F016A0BD04A1C026202686F
:1019900009785160C18C491E0904090CC1840ED01C
:1019A00017E009880268C1F3080151600169002944
:1019B000016A02D0491C0162ECE7891CFBE701685F
:1019C000CA6822F08002CA600068C16841F0400124
:1019D000C16000207047000008B50E48FFF70CFBFF
:1019E0000C4800680168C1F3001171B101684168D9
:1019F0000091016840680848006840680749C0F1E4
:101A000064000880064901200870BDE808400148CC
:101A1000FFF7F2BA78000020B80000200200002092
:101A200000000020FEE70907090E002804DB00F192
:101A3000E02080F80014704700F00F0000F1E02073
:101A400080F8141D70470000FEF7B8FFFFF700FD97
:101A5000FFF7B6FCFFF796FCFFF7D8FC13480068C9
:101A6000C16841F01001C160642211490F48FFF7BD
:101A7000F7FB0F4F0F4E104C002530780128FCD19A
:101A800022880B490948FFF739FC0020218802E031
:101A90003D54401CC0B28842FAD325803570642280
:101AA00003490248FFF7DCFBE7E70000780000206D
:101AB0001400002000000020020000204FF04070C1
:101AC000E1EE100A7047000610160006101600001E
:101AD00000000000000001020304060708090000DE
:101AE0000000010203040000081B000800000020A1
:101AF00014000000C40100081C1B00081400002092
:101B0000C4070000E0010008000000000100000020
:0C1B100010000000000000000024F400A1
:040000050800018965
:00000001FF
