:020000040800F2
:10000000780400209D010008DB1200085F12000840
:10001000D9120008D50200084517000800000000AA
:100020000000000000000000000000005113000864
:10003000D702000800000000DD120008531300087A
:10004000B7010008B7010008B70100084513000810
:10005000B7010008B7010008B7010008B7010008A0
:10006000B7010008B7010008B7010008B701000890
:10007000B7010008B7010008B7010008B701000880
:10008000B7010008B7010008B7010008B701000870
:10009000B7010008B7010008B7010008B701000860
:1000A000B7010008B7010008B7010008B701000850
:1000B000B7010008B7010008B7010008B701000840
:1000C000B7010008B7010008B7010008B701000830
:1000D000B7010008B7010008B7010008B701000820
:1000E000B7010008B7010008B7010008B701000810
:1000F000B7010008B7010008B7010008B701000800
:10010000B7010008B7010008B7010008B7010008EF
:10011000B7010008B7010008B7010008B7010008DF
:10012000B7010008B7010008B7010008B7010008CF
:10013000B7010008B7010008B7010008B7010008BF
:10014000B7010008B7010008B7010008B7010008AF
:10015000B7010008B7010008B7010008B70100089F
:10016000B7010008B7010008B7010008B70100088F
:10017000B7010008B7010008B7010008000000003F
:10018000B7010008B7010008DFF80CD000F090F8C4
:1001900000480047151900087804002006488047E9
:1001A00006480047FEE7FEE7FEE7FEE7FEE7FEE75C
:1001B000FEE7FEE7FEE7FEE7E1130008890100081D
:1001C0002DE9F05F0546002092469B46884606468C
:1001D000814640241BE0284641464746224600F01F
:1001E00057F853465A46C01A914110D31146184643
:1001F000224600F03EF82D1A67EB01084F462246D2
:100200000120002100F035F817EB00094E41201EB7
:10021000A4F10104DFDC484631462A464346BDE8E6
:10022000F09FD2B201E000F8012B491EFBD27047CB
:100230000022F6E710B513460A4604461946FFF7B2
:10024000F0FF204610BD30B50B46014600202022AD
:10025000012409E021FA02F59D4205D303FA02F5D3
:10026000491B04FA02F52844151EA2F10102F1DC33
:1002700030BD202A04DB203A00FA02F1002070474A
:100280009140C2F1200320FA03F3194390407047D4
:10029000202A04DB203A21FA02F00021704721FADB
:1002A00002F3D040C2F12002914008431946704742
:1002B000064C074D06E0E06840F0010394E80700B3
:1002C00098471034AC42F6D3FFF762FF841A000857
:1002D000A41A0008FEE7704770B5044600F0E6F87F
:1002E0000546601C02D004480078044400F0DEF8A3
:1002F000401BA042FAD370BD000000202DE9F84F4A
:10030000DFF87CB100224FF001084FF0030A4FF0F4
:100310000F090BF1040E00BF0B6808FA02F423402A
:10032000A3426ED14D68022D01D0122D0ED1D508F9
:1003300000EB850CDCF820505607F70E09FA07F69B
:10034000B5430E69BE402E43CCF8206006685500C8
:100350000F790AFA05FC07F0030726EA0C06AF40FE
:10036000374307604E68012E05D0022E03D0112EB0
:1003700001D0122E0ED18668CF6826EA0C06AF4057
:10038000374387604668A6430C79C4F30014944051
:1003900034434460C6688C6826EA0C06AC4034439B
:1003A000C4604C68E40065D5364C256845F480454A
:1003B0002560246822F0030504F480440094324C44
:1003C0002E19D6F8084895072F0F09FA07F5AC4300
:1003D0002E4DA84201D1002524E02D4DA84201D187
:1003E00001251FE02B4DA84201D102251AE02A4D1C
:1003F000A84201D1032515E0284DA84202D10425C9
:1004000010E037E0264DA84201D105250AE0254D30
:10041000A84201D1062505E0234DA84201D10725B8
:1004200000E00825BD402543C6F80858DBF8004029
:100430005D464E689C43F60300D51C432C60DEF8F5
:10044000004075464E689C43B60300D51C432C60A3
:100450000B4D08352C684E689C43F60200D51C43B2
:100460002C60074D0C352C684E689C43B60200D5B5
:100470001C432C60521C102AFFF44EAFBDE8F88FCD
:10048000003C01404438024000300140000002407E
:100490000004024000080240000C0240001002402C
:1004A0000014024000180240001C0240014880680D
:1004B0007047000000000020024881680278114463
:1004C00081607047000000200B4810B5016841F4BE
:1004D00000710160016841F480610160016841F4CC
:1004E00080710160032000F06FF8002000F006F832
:1004F00000F024F8002010BD003C024070B50D4D06
:1005000004464FF47A712878B1FBF0F00A49096883
:10051000B1FBF0F000F0CBFD48B9102C07D200225F
:100520002146501E00F030F800206C6070BD0120A4
:1005300070BD0000000000200C0000200A4808B533
:10054000016841F480410160006800F4804000903F
:100550000548001F016841F080510160006800F00B
:100560008050009008BD000044380240002809DB9C
:1005700000F01F02012191404009800000F1E020BD
:10058000C0F8001170470000F0B40E4B1B680C4619
:10059000C3F30223C3F10705042D00D90425191D57
:1005A000072901D2002300E0DB1E012606FA05F12F
:1005B000491E214099409E40761E16403143F0BCB2
:1005C00001F0D2B80CED00E0064900F0070208681F
:1005D0004FF6FF03184040EA0220034A1043086028
:1005E000704700000CED00E00000FA052DE9F8432B
:1005F000054600684FF00109C1074FF0000601D120
:10060000400727D5DFF80C81C8F86860FFF74EFF78
:100610000746414C05E000BFFFF748FFC01B02281A
:1006200057D820680001F7D468688101287A41EA28
:100630000070394984310860C8F86890FFF736FFC8
:10064000074604E0FFF732FFC01B022841D82068AC
:100650000001F7D52878800752D52F48403001682F
:1006600041F08051016000682C4C00F080500090F7
:10067000206840F480702060FFF718FF074604E010
:10068000FFF714FFC01B022823D82068C005F7D548
:10069000214C7034206810F4407020D0A98901F4F6
:1006A000407181421BD020681D4920F44070C1F880
:1006B00000900E6020602068C00710D0FFF7F6FEA3
:1006C000064641F2883707E0FFF7F0FE801BB8428C
:1006D00002D90320BDE8F88320688007F4D5E968D3
:1006E0000D48C1F301220830032A0BD0016821F420
:1006F000F81101602068A989C1F30B01084320604B
:100700000020E7E70268074B22F4F81219400A4379
:100710000260EFE7000047420038024000700040EE
:10072000400E4742FFFCFF0F2DE9F0470E46050043
:1007300065D0DFF81481D8F80000F7B200F00F00A0
:10074000B04207D288F80070D8F8000000F00F001F
:10075000B04254D128683D4C810712D5400703D5DB
:10076000206840F4E05020602878000703D5206816
:1007700040F4604020602068A96820F0F000084341
:1007800020602878C0072DD03049686808390128D2
:1007900012D0022813D0032811D009688907002934
:1007A0002DDA216821F0030101432160FFF77EFE6D
:1007B000814641F2883A0EE009688903EFE709684B
:1007C0008901ECE7FFF772FEA0EB0901514502D960
:1007D0000320BDE8F0872068696800F00C00B0EBEA
:1007E000810FEFD1D8F80010404601F00F01B1425F
:1007F00007D90770006800F00F00B04201D0012057
:10080000E7E72878400705D52068E96820F4E0503C
:10081000084320602878000706D52068296920F45D
:10082000604040EAC100206000F036F82168084AC4
:10083000C1F30311515CC840064908600020FFF76E
:100840005DFE0020C5E70000003C02400838024081
:100850006C1A00080C00002004480549006809686B
:10086000044AC1F38221515CC84070470C0000204B
:10087000083802407C1A00080448054900680968E5
:10088000044AC1F34231515CC84070470C0000205B
:10089000083802407C1A0008154810B5006810F0AE
:1008A0000C02144813D01449042A0FD0082A0ED180
:1008B0000F4C241F2268236802F03F025B0207D519
:1008C0002068C0F38810A0FB010106E0084610BDB7
:1008D0002168C1F38811A1FB00010023FFF770FC20
:1008E0002168C1F30141491C4900B0FBF1F010BD82
:1008F000083802400024F40040787D012DE9F84FCB
:10090000050076D02878DFF8F8B2BE4CC00749D091
:10091000DBF800105846C1F38101012908D00068B6
:10092000C0F3810002280AD1201D0068400206D5CC
:100930002068800336D568680028E2D032E0686815
:10094000B0F5803F10D0B0F5A02F206810D020F473
:1009500080302060206820F4802020606868A0B18A
:10096000FFF7A4FD06460CE0206840F48030F4E771
:1009700040F480202060F7E7FFF798FD801B642893
:1009800073D820688003F7D50CE0FFF78FFD06468B
:1009900005E000BFFFF78AFD801B6428F0D82068BF
:1009A0008003F7D42878DFF8608280074FF00009D1
:1009B0003ED5DBF80010584611F00C0F09D0006846
:1009C000C0F3810002280BD18D48001F006840024F
:1009D00006D42068800715D5E868012809D111E000
:1009E000E868B8B10120C8F80000FFF75FFD0646CF
:1009F00005E002E1FFF75AFD801B0228C0D82068FD
:100A00008007F7D52068296920F0F80040EAC10086
:100A100020600DE0C8F80090FFF748FD064604E0AE
:100A2000FFF744FD801B02281FD820688007F7D4F9
:100A30002878000722D5724E744869696C3671B106
:100A400001210160FFF732FD074604E0FFF72EFDAC
:100A5000C01B022809D830688007F7D50EE0C0F81F
:100A60000090FFF723FD074605E083E0FFF71EFD3A
:100A7000C01B02287ED830688007F7D4287840074A
:100A800068D5DFF87CA100270AF1380ADAF80000FF
:100A9000C0000BD4DAF8001041F08051CAF8001001
:100AA000DAF80000012700F080500090584E3068BE
:100AB000C00510D4306840F480703060FFF7F6FC59
:100AC000009005E0FFF7F2FC0099401A022851D887
:100AD0003068C005F6D54A4EA868683601280FD0A0
:100AE0000528306810D020F001003060306820F018
:100AF00004003060A868B8B1FFF7D8FC00900FE0A0
:100B0000306840F00100F4E740F004003060F7E79F
:100B1000FFF7CCFC0099411A41F28830814264D839
:100B200030688007F4D50EE0FFF7C0FC009007E0C6
:100B3000FFF7BCFC0099411A41F28830814254D839
:100B400030688007F4D42FB1DAF8001021F080511A
:100B5000CAF80010A869C0B3DBF80010C1F3810126
:100B600002294AD00228484607D0C8F86000FFF79B
:100B70009DFC00E039E005463AE04746C8F86000D1
:100B8000FFF794FC064604E0FFF790FC801B022868
:100B90002BD820688001F7D4D5E907010843A96A5A
:100BA0001C4A490802EB01416A6A41EA8211084382
:100BB00095F82C1040EA01611148001F01600120E6
:100BC0003866FFF773FC054605E014E0FFF76EFC9E
:100BD000401B022809D820688001F7D50BE000BF30
:100BE000FFF764FC401B022802D90320BDE8F88F00
:100BF00020688001F4D40020F8E70120F6E7000027
:100C0000083802400038024000004742800E474248
:100C1000007000400000FFFF2DE9F8478946017F82
:100C20009246012928D001260677022141770268E1
:100C3000CA215162016853224A6201688A68324DB2
:100C400052054FF000032D684FF0FF044FF00307EB
:100C50004FF4FA4C13D5B5FBFCF24FF47A7802FB53
:100C600008F20092B2F10108CDF8008016D3CA68EC
:100C7000520704D54246F5E70220BDE8F8878A68A6
:100C800022F480628A60B5FBFCF14FF47A72514322
:100C900000910168009A551E009504D24C62477776
:100CA00003770320E9E7CA685207F3D5C1F8149027
:100CB00001688A6822F007028A6001688A6842EA4D
:100CC0000A028A6011490A6842F480020A600F49E8
:100CD00008310A6842F480020A600168CA6802F0BA
:100CE000800262F49062CA6001688A6842F48042BD
:100CF0008A6001688A6842F480628A6001684C6296
:100D0000467703770020B8E70C000020003C014044
:100D10007047000010B504460068C16849050CD54D
:100D20008068400409D52046FFF7F2FF2068C168BB
:100D300001F0800161F49061C16003494FF48000CB
:100D400008600120607710BD143C014010B50068B8
:100D50000B4641680D480140080CD870C1F30424CB
:100D60005C7001F03F049C70C1F34231197052B9BC
:100D700000F0B5FAD870587800F0B1FA5870987849
:100D800000F0ADFA9870002010BD00003FFFFF009A
:100D900010B50B460168896A596001680969C1F399
:100DA0000E019960006801680E480140C1F30540DA
:100DB0001870C1F306245C7001F07F049C7040241D
:100DC00004EA1141D97052B900F089FA18705878C4
:100DD00000F085FA5870987800F081FA9870002039
:100DE00010BD00007F7F7F0070B5040002D0607FDF
:100DF00010B106E0012070BD00202077204600F0F1
:100E000049F8022060772168CA204862216853208F
:100E10004862204600F078FAFF25042618BB2068B7
:100E200081681B4A114081602168886862681043AC
:100E3000D4E904231A43104388602168E0680861FC
:100E400020680169228941EA024101612068C16884
:100E500021F08001C16020688068800607D42046A8
:100E600000F00AF918B1206845626677C2E7206889
:100E7000016C21F4802101642068016CA269114396
:100E800001642068456201206077002070BD000089
:100E9000BFFF8FFF10B50068084988420CD1084990
:100EA00001200860002211460320FFF76DFBBDE81A
:100EB00010400320FFF75ABB10BD0000002800407F
:100EC0003C0E47422DE9F0470446007F0B460128BF
:100ED0001FD04FF0010984F81C9002206077DAB12E
:100EE0009878D97840EA014558781978000240EAA4
:100EF000413005432168CA20486221685320486276
:100F0000204600F001FA0026FF274FF0040860BBDE
:100F10001AE00220BDE8F0875878C10603D500F03A
:100F2000EF000A305870D87800F0E2F902045878DF
:100F300000F0DEF942EA0022987800F0D9F9024385
:100F4000187842EA4035D5E70F48054020684560EB
:100F50002068C16821F08001C16020688068800637
:100F60000AD4204600F088F830B12068476284F83F
:100F70001D8026770120CDE72068476284F81D9008
:100F800026770020C6E700003FFFFF002DE9F0476D
:100F90000446007F0D46012827D04FF0010A84F84F
:100FA0001CA0022060772068002680684FEA40601D
:100FB000F2B1002800DBEE70A878297840EA0147FA
:100FC0006878E978000240EA014007432168CA20B6
:100FD0004862216853204862204600F095F94FF09E
:100FE000FF084FF00409A0BB16E00220BDE8F0871F
:100FF000002800DBEE70287800F07AF902046878A7
:1010000000F076F942EA0022A87800F071F9024374
:10101000E87842EA0047D9E71648074020680760A9
:101020002068816821F480218160D5E903010843AB
:1010300021688A68104388602068C16821F08001B7
:10104000C1602068806880060BD4204600F014F848
:1010500038B12168C1F8248084F81D9026770120DA
:10106000C4E72168C1F8248084F81DA026770020F9
:10107000BCE700007F7F7F0070B504460068C16850
:1010800021F0A001C160FFF711FA05464FF47A760E
:1010900007E000BFFFF70AFA401BB04201D9032066
:1010A00070BD2068C0688006F4D5002070BD10B502
:1010B000401EB0F1807F01D3012010BD4FF0E0242D
:1010C00060610F21601700F04FFB0020A061072036
:1010D0002061002010BD70B5040004D094F83900E0
:1010E000002510B106E0012070BD84F8385020467C
:1010F00000F022F8242084F839002068C16821F427
:101100000051C160204600F095F92068016921F482
:10111000904101612068416921F02A014161206804
:10112000C16841F40051C160E563202084F83900B2
:1011300084F83A00002070BD10B586B00446142132
:101140006846FFF775F814492068884221D1134892
:10115000016841F010010160006800F01000059086
:101160000E481438016841F00101016000686946C9
:1011700000F0010005904FF4C06000900220019043
:101180000120029003200390072004900448FFF7F9
:10119000B5F806B010BD0000001001404438024010
:1011A000000002402DE9F843044690F839001F463C
:1011B00016460D46202850D1A5B19EB194F83800AE
:1011C00001284AD0012084F838004FF00008C4F804
:1011D0003C80212084F83900FFF768F9A684814615
:1011E000E68426E00120BDE8F883E08C401EE08420
:1011F000A0684B46B0F5805F4FF000024FF08001D1
:101200002046009703D000F06BFAE8B90DE000F03B
:1012100067FAC8B928882168C0F3080048602069C7
:1012200008B16D1C05E0AD1C03E0216815F8010B49
:101230004860E08C0028D8D14B460022402120464F
:10124000009700F04DFA08B10320CCE7202084F885
:10125000390084F838800020C5E70220C3E7FEE7A4
:1012600010B586B014216846FEF7E2FF1948002445
:1012700017490594C0E900147F218160FF21C0E96E
:10128000031444618461FFF7AFFD8DF800408DF8D1
:1012900001408DF802400394002269460D480494F1
:1012A000FFF774FE01208DF814008DF815008DF8FD
:1012B00016008DF81740002205A90648FFF702FE28
:1012C000042200210348FFF7A7FC06B010BD000070
:1012D0000028004014000020FEE770477047010915
:1012E00001EB810100F00F0000EB4100C0B270473C
:1012F000002102E00A38C0B2491C0A28FAD20907C4
:1013000040EA11607047000070B504460068C1688B
:10131000490614D44FF0FF31C160FFF7C7F8054606
:101320004FF47A7607E000BFFFF7C0F8401BB042E9
:1013300001D9032070BD2068C0684006F4D50020A4
:1013400070BD00000148FFF7E5BC0000140000205C
:101350007047FFF7B1B8000010B596B0302168466D
:10136000FEF766FF14210CA8FEF762FF00241A485E
:101370001194129413941494016841F08051016007
:10138000006800F0805015901448016841F48041D5
:101390000160006800F48040159006200090012054
:1013A000029003901020049006946846FFF7A6FA76
:1013B0000F20CDE90C040E940F9400210CA810947A
:1013C000FFF7B2F902201190C001149011A8FFF7A5
:1013D0000DF916B010BD000040380240007000400A
:1013E0001048016841F4700101600F48016841F044
:1013F000010101600C4A00210832116002680B4BA8
:101400001A400260031D0A4A1A60026822F4802210
:10141000026005480C3001600249580680390860B6
:101420007047000088ED00E000380240FFFFF6FE44
:10143000103000242DE9F041044600680169E2689B
:1014400021F44051114301612169A068E269084318
:101450006169114322680843D16849F20C639943DA
:101460000143D16020684169A26921F440711143B0
:101470004161E2696425B2F5004F974897492268B7
:101480004FF032083FD08A4201D082427CD1FFF730
:10149000F3F900EBC00101EB001061688900B0FBBB
:1014A000F1F6FFF7E9F900EBC00101EB001061680C
:1014B0008900B0FBF1F0B0FBF5F06FF01801484384
:1014C00006EB800108EB0110B0FBF5F000F0F00630
:1014D000FFF7D2F900EBC00101EB00106168890051
:1014E000B0FBF1F0B0FBF5F006EB0016FFF7C4F926
:1014F00000EBC00101EB001061688900B0FBF1F75F
:10150000FFF7BAF9D2E08A4201D082423DD1FFF71B
:10151000B3F900EBC00101EB001061684900B0FBBA
:10152000F1F0B0FBF5F00601FFF7A6F900EBC00102
:1015300001EB001061684900B0FBF1F7FFF79CF97F
:1015400000EBC00101EB001061684900B0FBF1F055
:10155000B0FBF5F06FF01801484307EB800108EB92
:10156000C100B0FBF5F000F0F80006EB4006FFF715
:1015700083F900EBC00101EB001061684900B0FB8A
:10158000F1F7FFF779F93CE055E0FFF765F900EB7B
:10159000C00101EB001061684900B0FBF1F0B0FB45
:1015A000F5F00601FFF758F900EBC00101EB001060
:1015B00061684900B0FBF1F7FFF74EF900EBC0019D
:1015C00001EB001061684900B0FBF1F0B0FBF5F0F1
:1015D0006FF01801484307EB800108EBC100B0FB36
:1015E000F5F000F0F80006EB4006FFF735F900EBE8
:1015F000C00101EB001061684900B0FBF1F7FFF793
:101600002BF900EBC00101EB001061684900B0FB51
:10161000F1F0B0FBF5F06FF01801484307EB8001E3
:1016200008EBC100B0FBF5F000F007002168304482
:101630008860BDE8F081FFF70FF900EBC00101EB16
:10164000001061688900B0FBF1F6FFF705F900EBC7
:10165000C00101EB001061688900B0FBF1F0B0FB44
:10166000F5F06FF01801484306EB800108EB01101C
:10167000B0FBF5F000F0F006FFF7EEF800EBC0016C
:1016800001EB001061688900B0FBF1F0B0FBF5F0F0
:1016900006EB0016FFF7E0F800EBC00101EB0010CD
:1016A00061688900B0FBF1F7FFF7D6F800EBC001E5
:1016B00001EB001061688900B0FBF1F0B0FBF5F0C0
:1016C0006FF01801484307EB800108EB0110B0FBF5
:1016D000F5F000F00F00A9E70014014000100140F0
:1016E0002DE9F041984617460E460446069D1DE03A
:1016F000681C1BD02DB1FEF7D9FEA0EB0800A84254
:1017000014D92068C16821F4D071C1602068416992
:1017100021F001014161202084F8390084F83A0069
:10172000002084F838000320BDE8F08120680068BC
:1017300036EA000004D00020B842D9D00020F3E7F8
:101740000120F9E7FEE700000FB4054B10B503A92F
:10175000044A029800F028F810BC5DF814FB000061
:10176000FD180008100000200907090E002804DBFE
:1017700000F1E02080F80014704700F00F0000F145
:10178000E02080F8141D704702E008C8121F08C14D
:10179000002AFAD170477047002001E001C1121FF2
:1017A000002AFBD1704700002DE9FF4F89B09B460E
:1017B0000446002506E025280BD05A460B99904791
:1017C000641C6D1C20780028F5D10DB02846BDE8BA
:1017D000F08F0027B8460122474900E0074314F87C
:1017E000013F203B02FA03F00842F7D120782E286F
:1017F00019D114F8010F47F004072A280ED06FF012
:101800002F022078A0F1300109290CD808EB8801BB
:1018100002EB410100EB0108641CF2E70A98641C2A
:1018200050F8048B0A9020780028CED0642808D085
:10183000692806D075281ED05A460B9990476D1C12
:1018400058E00A994FF00A0901C90A91002802DA02
:1018500040422D2102E0390504D52B218DF82010BE
:10186000012103E0F90704D02021F7E78A4608AEFA
:101870000DE00021FAE70A994FF00A0901C90A911F
:10188000F7E74946FEF7DFFC303106F8011D002876
:10189000F7D1ADEB060000F12009780701D44FF035
:1018A0000108C84502DDA8EB090000E000208046E1
:1018B000002706E008A85A46C05D0B9990476D1CAA
:1018C0007F1C5745F6DB04E030205A460B999047C1
:1018D0006D1CB8F10001A8F10108F5DC05E016F86F
:1018E000010B5A460B9990476D1CB9F10001A9F103
:1018F0000109F4DC641C65E70928010013B50A231B
:10190000012269460248FFF74DFC00981CBD00000B
:10191000340000208AB00025FEF7D6FDFFF71CFD3D
:1019200045480024016841F004010160016801F0AC
:1019300004010091016841F001010160006800F0BC
:1019400001000090FFF78CFC3D483C4901604FF4DA
:10195000E131C0E901140C21C460C0E90441846193
:10196000C461FFF7B8FB6420FEF7B6FC34480022E0
:1019700003A92038FFF70CFA3148002208A92038C3
:10198000FFF7E4F99DF80E00A842ECD005469DF85B
:1019900022000A24B0FBF4F104FB1106B0FBF4F0C2
:1019A000B0FBF4F104FB11079DF821100296B1FB86
:1019B000F4F004FB1010B1FBF4F1B1FBF4F204FB02
:1019C00012139DF82310CDE90007B1FBF4F204FBDC
:1019D0001212B1FBF4F1B1FBF4FC04FB1C1119A0D1
:1019E000FFF7B2FE9DF80E00B0FBF4F104FB110707
:1019F000B0FBF4F0B0FBF4F104FB11069DF80D1000
:101A0000B1FBF4F004FB1010B1FBF4F1B1FBF4F204
:101A100004FB12139DF80C108DE8C100B1FBF4F229
:101A200004FB1212B1FBF4F1B1FBF4FC04FB1C113A
:101A300009A0FFF789FE96E7303802400010014008
:101A4000340000203230256425642D256425642D62
:101A5000256425640D0A0000256425643A25642563
:101A6000643A256425640D0A0D0A00000000000098
:101A7000000000000102030406070809000000003E
:101A800001020304A41A0008000000201400000052
:101A900088170008B81A0008140000206404000029
:101AA000981700080100000010000000000000006E
:081AB0000024F4000000000016
:040000050800018965
:00000001FF
