:020000040800F2
:10000000B8060020390200083B1400083714000825
:1000100039140008E1090008191800080000000060
:100020000000000000000000000000003F14000875
:10003000E3090008000000003D1400084114000816
:10004000530200085302000853020008530200083C
:10005000530200085302000853020008530200082C
:10006000530200085302000853020008530200081C
:10007000530200085302000853020008530200080C
:1000800053020008530200085302000853020008FC
:1000900053020008530200085302000853020008EC
:1000A00053020008530200085302000853020008DC
:1000B00053020008530200085302000853020008CC
:1000C00053020008530200085302000853020008BC
:1000D00053020008530200085302000853020008AC
:1000E000530200085302000853020008530200089C
:1000F000530200085302000853020008530200088C
:10010000530200085302000853020008530200087B
:10011000530200085302000853020008530200086B
:10012000530200085302000853020008530200085B
:10013000530200085302000853020008530200084B
:10014000530200085302000853020008530200083B
:10015000530200085302000853020008530200082B
:10016000530200085302000853020008530200081B
:100170005302000853020008530200080000000068
:10018000530200085302000800F002F800F045F89E
:100190000AA090E8000C82448344AAF10107DA45E2
:1001A00001D100F03AF8AFF2090EBAE80F0013F0EF
:1001B000010F18BFFB1A43F001031847D4170000C2
:1001C000F4170000103A24BF78C878C1FAD8520753
:1001D00024BF30C830C144BF04680C6070470000C1
:1001E0000023002400250026103A28BF78C1FBD840
:1001F000520728BF30C148BF0B6070471FB501F0E0
:10020000B5FB00F0A7FB04000020002101F098FBE3
:10021000401C60601FBD10B510BD00F05FF91146B5
:10022000FFF7ECFF01F026FB00F078FB03B4FFF7CB
:10023000F2FF03BC00F088FB0948804709480047EB
:10024000FEE7FEE7FEE7FEE7FEE7FEE7FEE7FEE786
:10025000FEE7FEE704480549054A064B70470000E3
:10026000B514000889010008B8000020B806002075
:10027000B8020020B802002053EA020C00F06980A6
:100280002DE9F04B4FF00006002B1FBFB3FA83F5AA
:1002900003FA05F424FA05F65E4012BF1643B2FADB
:1002A00082F502FA05F4C5F120051EBF22FA05FC0D
:1002B00044EA0C04203556EA044C4FEA144418BFB3
:1002C000641C4FF000084FF00009904271EB030CE2
:1002D00039D3002919BFB1FA81F701FA07F6B0FA4C
:1002E00080F700FA07F6C7F120071EBF20FA07FCC7
:1002F00046EA0C062037B6FBF4FCA7EB0507103FD7
:1003000007F01F0BCBF120060CFA0BFB2CFA06F6BC
:1003100044BFB3460026202FA4BF5E464FF0000B1B
:100320005BEA060C08BF4FF0010B19EB0B09ABFBA6
:10033000027C48EB0608C01B06FB02CC0BFB03CC7F
:1003400071EB0C01C1E70B46024641464846BDE849
:10035000F08B13B54FF000004FF00001AFF30080B9
:10036000BDE81C40704700000FB4044910B503AA53
:10037000029800F03FF810BC5DF814FB000000206C
:100380000FB400B589B00BA86A46009003480A99DB
:1003900000F042F809B05DF814FB000004000020F2
:1003A0004FF0000200B5134694469646203922BF0E
:1003B000A0E80C50A0E80C50B1F12001BFF4F7AF59
:1003C000090728BFA0E80C5048BF0CC05DF804EB3B
:1003D000890028BF40F8042B08BF704748BF20F8A9
:1003E000022B11F0804F18BF00F8012B70477047A7
:1003F00070477047074B70B50D467B4400F01DF801
:100400000446284600F066F810B14FF0FF3070BD8A
:10041000204670BD5B140000034B7B449361034B8B
:100420007B44D36100F022B81F1400006B00000071
:1004300001694A1C02610878704700B58FB0CDE9A8
:1004400001310021059105497944CDE90310114698
:10045000684600F071F80FB000BD0000E5FFFFFF37
:10046000026811441378016018467047D16005494D
:1004700079445161044979441162002111611146A6
:1004800000F06EB8EDFFFFFFAD000000704710B543
:100490004FF0FF34C1688A020FD5036B42689A425D
:1004A0000BD1014690F82520104600F013FA401CAD
:1004B00001D1204610BD002010BD11F0C00FF8D1B1
:1004C000026941689142F4D90268491E521CC0E990
:1004D0000021F0E7007B00F080007047754600F0D7
:1004E00027FAAE4605006946534620F007008546C8
:1004F00018B020B5FFF7AEFEBDE820404FF0000673
:100500004FF000074FF000084FF0000B21F00701FB
:10051000AC46ACE8C009ACE8C009ACE8C009ACE83E
:10052000C0098D46704710B5044600F005FA006812
:10053000005D00F0010010BD2DE9F04106460024E9
:10054000D6E90170F5688046304603E04146B84779
:10055000641C3046A8470028F8D12046BDE8F08149
:100560002DE9F34F4FF0000A0C4656468DB001209E
:100570000C9001F10C000B9062690B9801219047DF
:10058000051E2DD0252D2CD0216A8847C0B1626967
:100590000B9801219047216A88470028F7D16269AA
:1005A000411E0B98904700E0761CA1690D98884782
:1005B000216A88470028F7D1E1690D988847DBE771
:1005C000A1690D988847A842074601D1761CD3E758
:1005D000E1690D9888477F1C02D1BAF1000F6FD0F6
:1005E0006BE162690B9800273D46394690472A28FF
:1005F00004D162690B98012190470125DFF8D08270
:1006000062690B9801219047A0F130010A290AD2B2
:100610004745E5DC07EB870100EB4107303FDFD4BE
:1006200045F01005ECE7E90601D46FF000476C28AF
:100630000AD04C2814D0682815D06A280DD0742808
:100640001CD07A281AD01DE062690B9801219047CE
:100650006C2802D045F0040514E045F002050DE0D9
:1006600045F020050AE062690B980121904768284F
:1006700002D045F0080505E045F4006562690B9875
:1006800001219047C4E9015765283DD019DC58285D
:100690007AD00CDC452837D004DC252826D0412828
:1006A0009ED131E046282FD0472899D12CE05B28F5
:1006B00077D0612828D063287CD0642823D15AE0E1
:1006C000F6E06F2848D008DC66281DD067281BD0CC
:1006D000692821D06E2816D127E0702845D07328CC
:1006E00068D0752847D078280DD14DE0A1690D98C4
:1006F0008847252805463FF469AFE1690D9888478A
:100700006D1C3FF46AAFD8E00D9923466A466FF03E
:100710000100AFF30080C5E045F0400023464FF0F4
:1007200000026060A80736D43EE0E8077FF447AFD8
:100730002068011D21600068290501D506701BE7AE
:10074000290701D5068017E7A90703D5F117C0E9E6
:10075000006111E706600FE745F0400023464FF0C7
:1007600008026060A80716D41EE040F60E0125EAD4
:100770000100606016E045F0400023464FF00A0299
:100780006060A80707D40FE045F040006060A8074C
:1007900008D5234610220D996FF00100AFF30080B9
:1007A00080E007E0102223460D996FF00100AFF3BF
:1007B000008077E04FF0000963284F46C8464B465B
:1007C000CB4602D05B2806D038E0E80601D40120F1
:1007D000A060012732E06269D4F80CB00B980121C7
:1007E00090475E2807D14FF0010949466269D4F865
:1007F0000CB00B989047216939B900210A4603AB28
:1008000043F82120491C0829FADBD8B3216949B3F0
:1008100008F1010862690B98012190475D28F4D125
:10082000B9F1000F09D0002003A951F82020D243CC
:1008300041F82020401C0828F7DB03AB2069002882
:1008400020794FEA40701ED05B462246CDF80080EA
:10085000CDE901970D9900286FF0010020DAAFF380
:1008600000801FE0C11703AA00EBD1614B1121F0FA
:100870001F0102EB8302411A1368012088400343E1
:100880001360C7E719E00D99224600286FF00100B8
:10089000009702DAAFF3008004E0AFF3008001E0DC
:1008A000AFF3008000280ADA401C06D10C9820B172
:1008B0004FF0FF300FB0BDE8F08F5046FAE7E90780
:1008C00001D10AF1010A064400200C9054E6000010
:1008D000CCCCCC0CCA68431C0FD00D4B1A420CD1A7
:1008E000D3070AD081F825004B680B6300238B6087
:1008F00012F0C06F0B6003D004E04FF0FF30704780
:1009000042F00072034B1A40034B1A43CA6070470F
:1009100080200800BFFFDFFF0010480010B504462C
:10092000AFF300802046BDE81040FFF77FBC000019
:10093000004870475800002010B500F00BF8001D6B
:1009400010BD00BFFD0F000001491820ABBEFEE73F
:100950002600020000487047780000207047000021
:100960004FF0013C50F8042B51F8043B9A4221D13E
:10097000A2EB0C03934313EACC1317D150F8042BCA
:1009800051F8043B9A4215D1A2EB0C03934313EAAE
:10099000CC130BD150F8042B51F8043B9A4209D1E7
:1009A000A2EB0C03934313EACC13DBD04FF000000F
:1009B000704700BFD01A01BAB1FA81F101F01801F5
:1009C00022FA01F0CB40C1F12001DBB2C0B2C01A63
:1009D0002CFA01F3D11A914311EAC311E6D1704701
:1009E000FEE7704770B5044600F0E6F80546601C67
:1009F00002D004480078044400F0DEF8401BA04216
:100A0000FAD370BD080000202DE9F84FDFF87CB163
:100A100000224FF001084FF0030A4FF00F090BF1CD
:100A2000040E00BF0B6808FA02F42340A3426ED103
:100A30004D68022D01D0122D0ED1D50800EB850C8A
:100A4000DCF820505607F70E09FA07F6B5430E6991
:100A5000BE402E43CCF82060066855000F790AFA94
:100A600005FC07F0030726EA0C06AF403743076092
:100A70004E68012E05D0022E03D0112E01D0122E69
:100A80000ED18668CF6826EA0C06AF4037438760F0
:100A90004668A6430C79C4F3001494403443446080
:100AA000C6688C6826EA0C06AC403443C4604C68C7
:100AB000E40065D5364C256845F4804525602468FA
:100AC00022F0030504F480440094324C2E19D6F829
:100AD000084895072F0F09FA07F5AC432E4DA84299
:100AE00001D1002524E02D4DA84201D101251FE0B0
:100AF0002B4DA84201D102251AE02A4DA84201D16E
:100B0000032515E0284DA84202D1042510E037E066
:100B1000264DA84201D105250AE0254DA84201D164
:100B2000062505E0234DA84201D1072500E0082550
:100B3000BD402543C6F80858DBF800405D464E68C6
:100B40009C43F60300D51C432C60DEF8004075463C
:100B50004E689C43B60300D51C432C600B4D0835F2
:100B60002C684E689C43F60200D51C432C60074D50
:100B70000C352C684E689C43B60200D51C432C6093
:100B8000521C102AFFF44EAFBDE8F88F003C014024
:100B9000443802400030014000000240000402409E
:100BA00000080240000C0240001002400014024005
:100BB00000180240001C0240014880687047000095
:100BC0000800002002488168027811448160704763
:100BD000080000200B4810B5016841F40071016065
:100BE000016841F480610160016841F48071016035
:100BF000032000F061F8002000F006F800F024F86F
:100C0000002010BD003C024070B50D4D04464FF46D
:100C10007A712878B1FBF0F00A490968B1FBF0F06D
:100C200000F0D4FA48B9102C07D200222146501EF9
:100C300000F022F800206C6070BD012070BD000043
:100C400008000020140000200A4808B5016841F49B
:100C500080410160006800F4804000900548001F5A
:100C6000016841F080510160006800F08050009000
:100C700008BD000044380240F0B40E4B1B680C461F
:100C8000C3F30223C3F10705042D00D90425191D60
:100C9000072901D2002300E0DB1E012606FA05F138
:100CA000491E214099409E40761E16403143F0BCBB
:100CB00000F0B3BD0CED00E0064900F00702086843
:100CC0004FF6FF03184040EA0220034A1043086031
:100CD000704700000CED00E00000FA052DE9F04738
:100CE0000E46050065D0DFF81481D8F80000F7B291
:100CF00000F00F00B04207D288F80070D8F800006A
:100D000000F00F00B04254D128683D4C810712D545
:100D1000400703D5206840F4E050206028780007A1
:100D200003D5206840F4604020602068A96820F066
:100D3000F000084320602878C0072DD0304968684B
:100D40000839012812D0022813D0032811D00968CD
:100D5000890700292DDA216821F003010143216070
:100D6000FFF72AFF814641F2883A0EE009688903BD
:100D7000EFE709688901ECE7FFF71EFFA0EB090127
:100D8000514502D90320BDE8F0872068696800F06A
:100D90000C00B0EB810FEFD1D8F80010404601F005
:100DA0000F01B14207D90770006800F00F00B04290
:100DB00001D00120E7E72878400705D52068E968D9
:100DC00020F4E050084320602878000706D520680A
:100DD000296920F4604040EAC100206000F036F844
:100DE0002168084AC1F30311515CC84006490860F4
:100DF0000020FFF709FF0020C5E70000003C02408B
:100E000008380240761900081400002004480549FB
:100E100000680968044AC1F38221515CC8407047E8
:100E200014000020083802408619000804480549CB
:100E300000680968044AC1F34231515CC8407047F8
:100E4000140000200838024086190008154810B523
:100E5000006810F00C02144813D01449042A0FD073
:100E6000082A0ED10F4C241F2268236802F03F028B
:100E70005B0207D52068C0F38810A0FB010106E0E3
:100E8000084610BD2168C1F38811A1FB00010023B1
:100E9000FFF7F2F92168C1F30141491C4900B0FB99
:100EA000F1F010BD083802400024F40040787D01C4
:100EB0002DE9F84F050076D02878DFF8F8B2BE4C5F
:100EC000C00749D0DBF800105846C1F38101012961
:100ED00008D00068C0F3810002280AD1201D0068F4
:100EE000400206D52068800336D568680028E2D025
:100EF00032E06868B0F5803F10D0B0F5A02F2068D0
:100F000010D020F480302060206820F48020206001
:100F10006868A0B1FFF750FE06460CE0206840F478
:100F20008030F4E740F480202060F7E7FFF744FECC
:100F3000801B642873D820688003F7D50CE0FFF786
:100F40003BFE064605E000BFFFF736FE801B642827
:100F5000F0D820688003F7D42878DFF86082800713
:100F60004FF000093ED5DBF80010584611F00C0F89
:100F700009D00068C0F3810002280BD18D48001F02
:100F80000068400206D42068800715D5E86801286B
:100F900009D111E0E868B8B10120C8F80000FFF7F6
:100FA0000BFE064605E002E1FFF706FE801B022865
:100FB000C0D820688007F7D52068296920F0F8009C
:100FC00040EAC10020600DE0C8F80090FFF7F4FD92
:100FD000064604E0FFF7F0FD801B02281FD82068BA
:100FE0008007F7D42878000722D5724E74486969C3
:100FF0006C3671B101210160FFF7DEFD074604E0A8
:10100000FFF7DAFDC01B022809D830688007F7D542
:101010000EE0C0F80090FFF7CFFD074605E083E043
:10102000FFF7CAFDC01B02287ED830688007F7D4BE
:101030002878400768D5DFF87CA100270AF1380A34
:10104000DAF80000C0000BD4DAF8001041F080514B
:10105000CAF80010DAF80000012700F08050009074
:10106000584E3068C00510D4306840F4807030604D
:10107000FFF7A2FD009005E0FFF79EFD0099401AE2
:10108000022851D83068C005F6D54A4EA86868369F
:1010900001280FD00528306810D020F00100306002
:1010A000306820F004003060A868B8B1FFF784FD14
:1010B00000900FE0306840F00100F4E740F00400D9
:1010C0003060F7E7FFF778FD0099411A41F2883068
:1010D000814264D830688007F4D50EE0FFF76CFDDC
:1010E000009007E0FFF768FD0099411A41F288304F
:1010F000814254D830688007F4D42FB1DAF8001058
:1011000021F08051CAF80010A869C0B3DBF80010C4
:10111000C1F3810102294AD00228484607D0C8F805
:101120006000FFF749FD00E039E005463AE0474638
:10113000C8F86000FFF740FD064604E0FFF73CFDFD
:10114000801B02282BD820688001F7D4D5E907013D
:101150000843A96A1C4A490802EB01416A6A41EA4C
:101160008211084395F82C1040EA01611148001FD4
:10117000016001203866FFF71FFD054605E014E019
:10118000FFF71AFD401B022809D820688001F7D517
:101190000BE000BFFFF710FD401B022802D903201F
:1011A000BDE8F88F20688001F4D40020F8E7012022
:1011B000F6E70000083802400038024000004742CD
:1011C000800E4742007000400000FFFF10B5401E37
:1011D000B0F1807F01D3012010BD4FF0E0246061A9
:1011E0000F21601700F019FB0020A061072020618B
:1011F000002010BD70B5040004D094F8390000251B
:1012000010B106E0012070BD84F83850204600F08F
:1012100023F8242084F839002068C16821F40051A3
:10122000C160204600F070F92068016921F4904106
:1012300001612068416921F02A0141612068C1688B
:1012400041F40051C160E563202084F8390084F83E
:101250003A00002070BD000010B586B0044614218D
:101260006846FFF79DF814492068884221D1134849
:10127000016841F010010160006800F01000059065
:101280000E481438016841F00101016000686946A8
:1012900000F0010005904FF4C06000900220019022
:1012A0000120029003200390072004900448FFF7D8
:1012B000ABFB06B010BD00000010014044380240F6
:1012C000000002402DE9F843044690F83A009946A0
:1012D00016460D4620284FD195B18EB194F83800AE
:1012E000012849D0012084F838000027E763222034
:1012F00084F83A00FFF760FCA6858046E68531E079
:101300000120BDE8F883E08D401EE085A0684346DB
:10131000B0F5805F4FF000024FF020012046CDF87D
:10132000009004D000F046FA98B10320E9E700F0FD
:1013300041FA0028F9D1206900282068406803D0CC
:10134000C1B225F8011B0DE0C0F3080125F8021B0E
:1013500008E0206900282068406801D000F07F0084
:1013600005F8010BE08D0028CDD1202084F83A004B
:1013700084F838700020C4E70220C2E72DE9F84362
:10138000044690F839001F4616460D46202850D1D5
:10139000A5B19EB194F8380001284AD0012084F804
:1013A00038004FF00008C4F83C80212084F8390050
:1013B000FFF702FCA6848146E68426E00120BDE812
:1013C000F883E08C401EE084A0684B46B0F5805F57
:1013D0004FF000024FF080012046009703D000F04C
:1013E000E9F9E8B90DE000F0E5F9C8B92888216805
:1013F000C0F308004860206908B16D1C05E0AD1C11
:1014000003E0216815F8010B4860E08C0028D8D172
:101410004B46002240212046009700F0CBF908B14E
:101420000320CCE7202084F8390084F8388000209D
:10143000C5E70220C3E7FEE7FEE770477047704745
:10144000FFF7C0BB10B592B030216846FEF7A8FF89
:1014500014210CA8FEF7A4FF14480024016841F0F1
:1014600080510160006800F08050119010480168C0
:1014700041F4804101600068069400F480401190BE
:101480000220009001200390102004906846FFF78E
:101490000FFD0F20CDE90C040E940F9400210CA831
:1014A0001094FFF71BFC12B010BD00004038024042
:1014B000007000401048016841F4700101600F485D
:1014C000016841F0010101600C4A002108321160FD
:1014D00002680B4B1A400260031D0A4A1A60026838
:1014E00022F48022026005480C300160024958064F
:1014F000803908607047000088ED00E00038024045
:10150000FFFFF6FE103000242DE9F041044600688C
:101510000169E26821F44051114301612169A06829
:10152000E26908436169114322680843D16849F2BE
:101530000C6399430143D16020684169A26921F499
:10154000407111434161E2696425B2F5004F97484B
:10155000974922684FF032083FD08A4201D0824238
:101560007CD1FFF763FC00EBC00101EB0010616868
:101570008900B0FBF1F6FFF759FC00EBC00101EB6D
:10158000001061688900B0FBF1F0B0FBF5F06FF07E
:101590001801484306EB800108EB0110B0FBF5F0A1
:1015A00000F0F006FFF742FC00EBC00101EB001079
:1015B00061688900B0FBF1F0B0FBF5F006EB0016B6
:1015C000FFF734FC00EBC00101EB001061688900FB
:1015D000B0FBF1F7FFF72AFCD2E08A4201D0824249
:1015E0003DD1FFF723FC00EBC00101EB0010616867
:1015F0004900B0FBF1F0B0FBF5F00601FFF716FC77
:1016000000EBC00101EB001061684900B0FBF1F78D
:10161000FFF70CFC00EBC00101EB00106168490012
:10162000B0FBF1F0B0FBF5F06FF01801484307EBA9
:10163000800108EBC100B0FBF5F000F0F80006EB0C
:101640004006FFF7F3FB00EBC00101EB00106168FF
:101650004900B0FBF1F7FFF7E9FB3CE055E0FFF78D
:10166000D5FB00EBC00101EB001061684900B0FB45
:10167000F1F0B0FBF5F00601FFF7C8FB00EBC0018D
:1016800001EB001061684900B0FBF1F7FFF7BEFB0A
:1016900000EBC00101EB001061684900B0FBF1F004
:1016A000B0FBF5F06FF01801484307EB800108EB41
:1016B000C100B0FBF5F000F0F80006EB4006FFF7C4
:1016C000A5FB00EBC00101EB001061684900B0FB15
:1016D000F1F7FFF79BFB00EBC00101EB0010616825
:1016E0004900B0FBF1F0B0FBF5F06FF01801484392
:1016F00007EB800108EBC100B0FBF5F000F007003C
:10170000216830448860BDE8F081FFF77FFB00EB83
:10171000C00101EB001061688900B0FBF1F6FFF732
:1017200075FB00EBC00101EB001061688900B0FBA4
:10173000F1F0B0FBF5F06FF01801484306EB8001C3
:1017400008EB0110B0FBF5F000F0F006FFF75EFBD0
:1017500000EBC00101EB001061688900B0FBF1F003
:10176000B0FBF5F006EB0016FFF750FB00EBC001F5
:1017700001EB001061688900B0FBF1F7FFF746FB51
:1017800000EBC00101EB001061688900B0FBF1F0D3
:10179000B0FBF5F06FF01801484307EB800108EB50
:1017A0000110B0FBF5F000F00F00A9E700140140B4
:1017B000001001402DE9F041984617460E460446B8
:1017C000069D1DE0681C1BD02DB1FFF7F5F9A0EBBD
:1017D0000800A84214D92068C16821F4D071C16002
:1017E0002068416921F001014161202084F839001D
:1017F00084F83A00002084F838000320BDE8F08126
:101800002068006836EA000004D00020B842D9D031
:101810000020F3E70120F9E7FEE70907090E002899
:1018200004DB00F1E02080F80014704700F00F00A6
:1018300000F1E02080F8141D7047000008B54FF655
:10184000FF73012269460348FFF73CFD9DF8000045
:1018500008BD00001800002005490968C90105D528
:101860004FF060410A68002AFCD008707047000001
:10187000FCED00E023A386B00FCB8DE80F00FFF74F
:10188000A9F9FFF7DFFD23480021026842F00102B9
:101890000260026802F001020492026842F0020251
:1018A000026000681C4A00F0020004901B480260BD
:1018B0004FF4E132C0E901210C22C160C0E90412F9
:1018C0008161C161FFF796FC4FF47A7414A0FEF7B2
:1018D00057FD0A23082215A11048FFF74FFD2046A7
:1018E000FFF780F80A230C2269460C48FFF746FDF3
:1018F0002046FFF777F810A0FEF736FD2046FFF7E9
:1019000071F8E3E7555341525420544553540D0A9E
:101910000000000030380240001001401800002094
:101920006C696E7A696A650D0A00000048656C6C26
:101930006F210D0A0000000068656C6C6F0D0A00D5
:1019400010B500290AD00878002807D00548784447
:10195000FFF706F8002801D0002010BD02487844A7
:1019600010BD0000620000005A0000004FF04070FF
:10197000E1EE100A704700000000000000000102C4
:101980000304060708090000000001020304000028
:10199000C01A00080000002018000000C401000860
:1019A000D81A000818000020A0060000E001000876
:1019B0001001000043000000F8FFFFFF004040401E
:1019C0004040404040404141414141404040404012
:1019D00040404040404040404040404040050202BE
:1019E000020202020202020202020202022020207D
:1019F00020202020202020020202020202029090D9
:101A000090909090101010101010101010101010D6
:101A1000101010101010101002020202020288882A
:101A20008888888808080808080808080808080836
:101A3000080808080808080802020202400000001E
:101A40000000000000000000000000000000000096
:101A50000000000000000000000000000000000086
:101A60000000000000000000000000000000000076
:101A70000000000000000000000000000000000066
:101A80000000000000000000000000000000000056
:101A90000000000000000000000000000000000046
:101AA0000000000000000000000000000000000036
:101AB0000000000000000000000000000000000026
:101AC0000000000000000000010000001000000005
:081AD000000000000024F400F6
:040000050800018965
:00000001FF
