:020000040800F2
:10000000900400209D010008171100085F0F0008F0
:1000100015110008A9020008B31400080000000030
:100020000000000000000000000000001B1100089C
:10003000AB02000800000000191100081D110008A3
:10004000B7010008B7010008B7010008B7010008B0
:10005000B7010008B7010008B7010008B7010008A0
:10006000AD020008B7010008B7010008B701000899
:10007000B7010008B7010008B7010008B701000880
:10008000B7010008B7010008B7010008B701000870
:10009000B7010008B7010008B7010008B701000860
:1000A000B7010008E5110008B7010008B701000812
:1000B000B7010008F1110008B7010008B7010008F6
:1000C000B7010008B7010008B7010008B701000830
:1000D000B7010008B7010008B7010008B701000820
:1000E000B7010008B7010008B7010008B701000810
:1000F000B7010008B7010008B7010008B701000800
:10010000B7010008B7010008B7010008B7010008EF
:10011000B7010008B7010008B7010008B7010008DF
:10012000B7010008B7010008B7010008B7010008CF
:10013000B7010008B7010008B7010008B7010008BF
:10014000B7010008B7010008B7010008B7010008AF
:10015000B7010008B7010008B7010008B70100089F
:10016000B7010008B7010008B7010008B70100088F
:10017000B7010008B7010008B7010008000000003F
:10018000B7010008B7010008DFF80CD000F07AF8DA
:1001900000480047F51400089004002006488047F6
:1001A00006480047FEE7FEE7FEE7FEE7FEE7FEE75C
:1001B000FEE7FEE7FEE7FEE791110008890100086F
:1001C0002DE9F05F0546002092469B46884606468C
:1001D000814640241BE0284641464746224600F01F
:1001E00041F853465A46C01A914110D31146184659
:1001F000224600F028F82D1A67EB01084F462246E8
:100200000120002100F01FF817EB00094E41201ECD
:10021000A4F10104DFDC484631462A464346BDE8E6
:10022000F09FD2B201E000F8012B491EFBD27047CB
:100230000022F6E710B513460A4604461946FFF7B2
:10024000F0FF204610BD202A04DB203A00FA02F11C
:10025000002070479140C2F1200320FA03F31943B4
:1002600090407047202A04DB203A21FA02F0002156
:10027000704721FA02F3D040C2F1200291400843B6
:1002800019467047064C074D06E0E06840F0010350
:1002900094E8070098471034AC42F6D3FFF778FF94
:1002A0002C1500084C150008FEE77047042000F0EC
:1002B00017B8000010B504280DD1074C04212046C2
:1002C00000F0F2F80028F9D0BDE810404FF40071BA
:1002D000024800F0EEB810BD0010024000140240C9
:1002E000044910B50A68024202D00860FFF7E2FF35
:1002F00010BD0000143C01402DE9F84FDFF87CB13F
:1003000000224FF001084FF0030A4FF00F090BF1E4
:10031000040E00BF0B6808FA02F42340A3426ED11A
:100320004D68022D01D0122D0ED1D50800EB850CA1
:10033000DCF820505607F70E09FA07F6B5430E69A8
:10034000BE402E43CCF82060066855000F790AFAAB
:1003500005FC07F0030726EA0C06AF4037430760A9
:100360004E68012E05D0022E03D0112E01D0122E80
:100370000ED18668CF6826EA0C06AF403743876007
:100380004668A6430C79C4F3001494403443446097
:10039000C6688C6826EA0C06AC403443C4604C68DE
:1003A000E40065D5364C256845F480452560246811
:1003B00022F0030504F480440094324C2E19D6F840
:1003C000084895072F0F09FA07F5AC432E4DA842B0
:1003D00001D1002524E02D4DA84201D101251FE0C7
:1003E0002B4DA84201D102251AE02A4DA84201D185
:1003F000032515E0284DA84202D1042510E037E07E
:10040000264DA84201D105250AE0254DA84201D17B
:10041000062505E0234DA84201D1072500E0082567
:10042000BD402543C6F80858DBF800405D464E68DD
:100430009C43F60300D51C432C60DEF80040754653
:100440004E689C43B60300D51C432C600B4D083509
:100450002C684E689C43F60200D51C432C60074D67
:100460000C352C684E689C43B60200D51C432C60AA
:10047000521C102AFFF44EAFBDE8F88F003C01403B
:1004800044380240003001400000024000040240B5
:1004900000080240000C024000100240001402401C
:1004A00000180240001C02400069084000D00120F2
:1004B0007047426931EA020200D109048161704744
:1004C0000AB1816170470904FBE7000001488068B8
:1004D0007047000000000020024881680278114443
:1004E00081607047000000200B4810B5016841F49E
:1004F00000710160016841F480610160016841F4AC
:1005000080710160032000F06FF8002000F006F811
:1005100000F024F8002010BD003C024070B50D4DE5
:1005200004464FF47A712878B1FBF0F00A49096863
:10053000B1FBF0F000F0C2FA48B9102C07D200224B
:100540002146501E00F030F800206C6070BD012084
:1005500070BD0000000000200C0000200A4808B513
:10056000016841F480410160006800F4804000901F
:100570000548001F016841F080510160006800F0EB
:100580008050009008BD000044380240002809DB7C
:1005900000F01F02012191404009800000F1E0209D
:1005A000C0F8001170470000F0B40E4B1B680C46F9
:1005B000C3F30223C3F10705042D00D90425191D37
:1005C000072901D2002300E0DB1E012606FA05F10F
:1005D000491E214099409E40761E16403143F0BC92
:1005E00000F068BF0CED00E0064900F00702086863
:1005F0004FF6FF03184040EA0220034A1043086008
:10060000704700000CED00E00000FA052DE9F0470E
:100610000E46050065D0DFF81481D8F80000F7B267
:1006200000F00F00B04207D288F80070D8F8000040
:1006300000F00F00B04254D128683D4C810712D51C
:10064000400703D5206840F4E05020602878000778
:1006500003D5206840F4604020602068A96820F03D
:10066000F000084320602878C0072DD03049686822
:100670000839012812D0022813D0032811D00968A4
:10068000890700292DDA216821F003010143216047
:10069000FFF71CFF814641F2883A0EE009688903A2
:1006A000EFE709688901ECE7FFF710FFA0EB09010C
:1006B000514502D90320BDE8F0872068696800F041
:1006C0000C00B0EB810FEFD1D8F80010404601F0DC
:1006D0000F01B14207D90770006800F00F00B04267
:1006E00001D00120E7E72878400705D52068E968B0
:1006F00020F4E050084320602878000706D52068E1
:10070000296920F4604040EAC100206000F016F83A
:100710002168084AC1F30311515CC84006490860CA
:100720000020FFF7FBFE0020C5E70000003C024070
:10073000083802401C1500080C000020154810B5B0
:10074000006810F00C02144813D01449042A0FD08A
:10075000082A0ED10F4C241F2268236802F03F02A2
:100760005B0207D52068C0F38810A0FB010106E0FA
:10077000084610BD2168C1F38811A1FB00010023C8
:10078000FFF71EFD2168C1F30141491C4900B0FB80
:10079000F1F010BD083802400024F40040787D01DB
:1007A0002DE9F84F050076D02878DFF8F8B2BE4C76
:1007B000C00749D0DBF800105846C1F38101012978
:1007C00008D00068C0F3810002280AD1201D00680B
:1007D000400206D52068800336D568680028E2D03C
:1007E00032E06868B0F5803F10D0B0F5A02F2068E7
:1007F00010D020F480302060206820F48020206019
:100800006868A0B1FFF762FE06460CE0206840F47D
:100810008030F4E740F480202060F7E7FFF756FED1
:10082000801B642873D820688003F7D50CE0FFF79D
:100830004DFE064605E000BFFFF748FE801B64281A
:10084000F0D820688003F7D42878DFF8608280072A
:100850004FF000093ED5DBF80010584611F00C0FA0
:1008600009D00068C0F3810002280BD18D48001F19
:100870000068400206D42068800715D5E868012882
:1008800009D111E0E868B8B10120C8F80000FFF70D
:100890001DFE064605E002E1FFF718FE801B022858
:1008A000C0D820688007F7D52068296920F0F800B3
:1008B00040EAC10020600DE0C8F80090FFF706FE96
:1008C000064604E0FFF702FE801B02281FD82068BE
:1008D0008007F7D42878000722D5724E74486969DA
:1008E0006C3671B101210160FFF7F0FD074604E0AD
:1008F000FFF7ECFDC01B022809D830688007F7D548
:100900000EE0C0F80090FFF7E1FD074605E083E048
:10091000FFF7DCFDC01B02287ED830688007F7D4C3
:100920002878400768D5DFF87CA100270AF1380A4B
:10093000DAF80000C0000BD4DAF8001041F0805162
:10094000CAF80010DAF80000012700F0805000908B
:10095000584E3068C00510D4306840F48070306064
:10096000FFF7B4FD009005E0FFF7B0FD0099401AD5
:10097000022851D83068C005F6D54A4EA8686836B6
:1009800001280FD00528306810D020F00100306019
:10099000306820F004003060A868B8B1FFF796FD19
:1009A00000900FE0306840F00100F4E740F00400F0
:1009B0003060F7E7FFF78AFD0099411A41F288306D
:1009C000814264D830688007F4D50EE0FFF77EFDE1
:1009D000009007E0FFF77AFD0099411A41F2883054
:1009E000814254D830688007F4D42FB1DAF800106F
:1009F00021F08051CAF80010A869C0B3DBF80010DC
:100A0000C1F3810102294AD00228484607D0C8F81C
:100A10006000FFF75BFD00E039E005463AE047463D
:100A2000C8F86000FFF752FD064604E0FFF74EFDF0
:100A3000801B02282BD820688001F7D4D5E9070154
:100A40000843A96A1C4A490802EB01416A6A41EA63
:100A50008211084395F82C1040EA01611148001FEB
:100A6000016001203866FFF731FD054605E014E01E
:100A7000FFF72CFD401B022809D820688001F7D51C
:100A80000BE000BFFFF722FD401B022802D9032024
:100A9000BDE8F88F20688001F4D40020F8E7012039
:100AA000F6E70000083802400038024000004742E4
:100AB000800E4742007000400000FFFF10B5401E4E
:100AC000B0F1807F01D3012010BD4FF0E0246061C0
:100AD0000F21601700F0EEFC0020A06107202061CC
:100AE000002010BD7047704710B590F83C20012AD7
:100AF00022D0012280F83C20CA688C6822F440721F
:100B000022434C6822F4806222430C6822F4006283
:100B100022430C6922F4805222434C6922F4005291
:100B20002243C969002322F480420A4301684A64CF
:100B300080F83C30002010BD022010BD70B590F848
:100B40003C20012A19D0012400F83C4F02224270B7
:100B500050F83C3C5A689D6822F070060A68496863
:100B6000324325F0800529435A6050F83C2C9160AF
:100B7000447000210170084670BD022070BD10B5A0
:100B8000040003D094F83D0010B107E0012010BD2F
:100B9000002084F83C00204600F00CF8022084F885
:100BA0003D00211D206800F029FB012084F83D0054
:100BB000002010BD08B50068154988420FD11548BE
:100BC000016841F0010101600068002200F00100AD
:100BD000009011461920FFF7E7FC192012E00E499A
:100BE000884213D10B48001F016841F002010160E7
:100BF0000068002200F00200009011461D20FFF75F
:100C0000D3FC1D20BDE80840FFF7C0BC08BD0000B4
:100C10000000014044380240000400400168CA68F6
:100C200042F00102CA600068816801F007010629EC
:100C300003D0016841F0010101600020704770B5E8
:100C4000044690F83C00012817D0012584F83C5058
:100C5000022084F83D002068826822F0770222F4A6
:100C60007F4282600868502830D00DDC20284DD0AB
:100C700005DC98B310283BD148E0022070BD302835
:100C800044D0402834D139E0602828D0702806D0DC
:100C9000B0F5805F2CD0B0F5005F29D10AE0CB68B9
:100CA000D1E90121206800F00DFB2068816841F046
:100CB000770109E0CB68D1E90121206800F002FB4F
:100CC0002068816841F48041816011E0CA68496808
:100CD000206800F0CBFB5021206807E016E0CA68CE
:100CE0004968206800F0D3FB6021206800F0F4FA26
:100CF00084F83D50002084F83C0070BDCA68496803
:100D0000206800F0B3FB40212068EFE7226801462D
:100D10001046EBE7704770B50446006801694FF074
:100D20000005C943890715D4C168C943890711D48F
:100D3000E91E016101202077206880698007204634
:100D400002D0FFF7E7FF04E000F0C3F8204600F010
:100D5000DDF8257720680169C943490717D4C168C0
:100D6000C943490713D46FF00401016102202077C1
:100D70002068806910F4407F204602D0FFF7CAFF48
:100D800004E000F0A6F8204600F0C0F825772068BF
:100D90000169C943090716D4C168C943090712D4B8
:100DA0006FF008010161042020772068C069800786
:100DB000204602D0FFF7AEFF04E000F08AF820469C
:100DC00000F0A4F8257720680169C943C90617D443
:100DD000C168C943C90613D46FF01001016108202E
:100DE00020772068C06910F4407F204602D0FFF7CA
:100DF00091FF04E000F06DF8204600F087F82577B9
:100E000020680169C943C90708D1C168C943C90736
:100E100004D1891E0161204600F07AF8206801693A
:100E2000C943090609D4C168C943090605D46FF04E
:100E3000800101612046FFF755FE20680169C94322
:100E4000490609D4C168C943490605D46FF0400179
:100E50000161204600F082F820680169C9438906D3
:100E60000BD4C168C943890607D46FF02001016122
:100E70002046BDE87040FFF736BE70BD70B5044631
:100E800090F83C0001280DD0012584F83C50022048
:100E900084F83D0042B1042A0AD0082A0CD00C2A5A
:100EA00011D10DE0022070BD206800F01DFA0AE0AB
:100EB000206800F049FA06E0206800F07BFA02E0C2
:100EC000206800F0ABFA84F83D50002084F83C0024
:100ED00070BD704710B5040003D094F83D0010B108
:100EE00007E0012010BD002084F83C00204600F0FF
:100EF0000CF8022084F83D00211D206800F07EF9E6
:100F0000012084F83D00002010BD704770470000AC
:100F100070B50F490F4D884201D1291512E00C49D7
:100F20004031884213D10C4C08212046FFF7BCFA0F
:100F300000280CD108212046FFF7B6FA0128F9D085
:100F40004FF400712846BDE87040FFF7B2BA70BD9B
:100F50001000002000140240001002407047FEE71D
:100F6000F0B587B014216846FFF762F921480024E4
:100F7000016841F010010160016801F01001059164
:100F8000016841F02001016000681B4E00F0200064
:100F90000122059051023046FFF792FA00223115E6
:100FA0003046FFF78DFA0420009014480125CDE962
:100FB0000105134F69463846FFF79EF908208DE872
:100FC000310069463846FFF797F94FF4C06000904A
:100FD000CDE90154694630460394FFF78DF90022AC
:100FE00005210820FFF7E0FA0820FFF7CFFA07B045
:100FF000F0BD000030380240001402400000211013
:101000000010024010B596B000240F941094119473
:10101000129413941C2108A81494FFF709F92021B5
:101020006846FFF705F91D481B49016043F67F61DB
:10103000C0E901140911C0E9031444618461FFF798
:101040009EFD4FF480500F900FA91448FFF7F7FD55
:101050001248FFF73FFF139413A910481494FFF7A9
:101060006DFD089409940A940B940C940D9400223D
:1010700008A90A480E94FFF701FF00944FF40050AE
:10108000CDE904400294019403946946034807940F
:10109000FFF72AFD16B010BD00000140100000202F
:1010A00010B58EB000240794089409940A940B9408
:1010B0001C2168460C94FFF7BBF8154813490160E2
:1010C0000F21C0E9011440F2E731C0E90314846143
:1010D000FFF755FD4FF48050079007A90C48FFF724
:1010E000AEFD0B48FFF7F6FE0B940BA908480C94D5
:1010F000FFF724FD009401940294002269460448FD
:101100000494FFF7BBFE0EB010BD000000040040C9
:1011100050000020FEE7704770477047FFF7DCB9CA
:1011200010B592B030216846FFF782F814210CA860
:10113000FFF77EF814480024016841F080510160F7
:10114000006800F0805011901048016841F480411F
:1011500001600068069400F4804011900220009025
:1011600001200390102004906846FFF719FB0F2020
:10117000CDE90C040E940F9400210CA81094FFF7F5
:1011800045FA12B010BD0000403802400070004027
:101190001048016841F4700101600F48016841F096
:1011A000010101600C4A00210832116002680B4BFA
:1011B0001A400260031D0A4A1A60026822F4802263
:1011C000026005480C300160024958068039086009
:1011D0007047000088ED00E000380240FFFFF6FE97
:1011E000103000240148FFF796BD000010000020D9
:1011F0000148FFF790BD000050000020F0B50268E4
:10120000254C264D264E274F274B4FF0804CA042B1
:1012100009D0604507D0A84205D0B04203D0B842FB
:1012200001D0984204D122F0700E4A6842EA0E02C0
:10123000A0421BD0604519D0A84217D0B04215D0AB
:10124000B84213D0984211D0184DA8420ED0184D74
:10125000A8420BD0174DA84208D0174DA84205D080
:10126000164DA84202D0164DA84203D122F4407573
:10127000CA682A434D6922F080022A4302608A68C4
:10128000C2620A688262A04201D0984201D1096913
:10129000016301214161F0BD0000014000040040F4
:1012A00000080040000C00400004014000400140E4
:1012B000004401400048014000180040001C00406C
:1012C0000020004010B5846842EA032224F47F44E1
:1012D0000A432243826010BD826822F070020A43F2
:1012E00042F0070181607047F0B5026A22F0010206
:1012F0000262036A42688469124E24F073050C6826
:101300002C4323F002058B682B430D4DA84201D0DE
:10131000B04205D123F00807CB683B4323F0040318
:10132000A84201D0B04205D14D6922F44072154364
:101330008A692A4342608461496841630362F0BD5F
:101340000000014000040140F0B5026A22F01002E2
:101350000262026A436884690D6824F4E64444EA40
:1013600005248D6822F0200242EA05120F4D104E2E
:10137000A84201D0B04206D1CF6822F0800242EAF2
:10138000071222F04002A84201D0B04207D14D69B5
:1013900023F4406343EA85038D6943EA8503436090
:1013A0008461496881630262F0BD00000000014071
:1013B00000040140F0B5026A22F480720262026AFF
:1013C0004368C46922F4007224F073050C68124E5D
:1013D0002C438D6842EA05220E4DA84201D0B0424E
:1013E00006D1CF6822F4006242EA072222F480622A
:1013F000A84201D0B04207D14D6923F4405343EADB
:1014000005138D6943EA05134360C4614968C163EC
:101410000262F0BD000001400004014030B5026AE4
:1014200022F480520262046A4268C3690D6823F4A0
:10143000E64343EA05238D6824F4005444EA053466
:10144000084DA84202D0084DA84204D14D6922F4AB
:10145000804242EA85124260C361496801640462C5
:1014600030BD0000000001400004014010B5036AD7
:10147000046A24F001040462846924F0F00444EA5C
:10148000021423F00A020A438461026210BD10B5FF
:10149000036A23F0100303628369046A23F4704330
:1014A00043EA023224F0A00343EA0111826101629F
:1014B00010BDFEE70907090E002804DB00F1E0205B
:1014C00080F80014704700F00F0000F1E02080F871
:1014D000141D704702E008C8121F08C1002AFAD183
:1014E00070477047002001E001C1121F002AFBD1A4
:1014F00070470000FEF7F8FFFFF712FEFFF730FD20
:10150000FFF780FDFFF7CCFD0348FFF787FB02489C
:101510004030FFF783FBFEE71000002000000000D2
:101520000000000001020304060708094C1500082A
:101530000000002010000000D41400085C15000812
:101540001000002080040000E414000801000000E6
:0C15500010000000000000000024F40067
:040000050800018965
:00000001FF
