:020000040800F2
:10000000780400209D010008BF0F0008BB0F000806
:10001000BD0F0008A90200089D13000800000000A1
:10002000000000000000000000000000C30F0008F6
:10003000AB02000800000000C10F0008C50F000857
:10004000B7010008B7010008B7010008B7010008B0
:10005000B7010008B7010008B7010008B7010008A0
:10006000B7010008B7010008B7010008B701000890
:10007000B7010008B7010008B7010008B701000880
:10008000B7010008B7010008B7010008B701000870
:10009000B7010008B7010008B7010008B701000860
:1000A000B7010008B7010008B7010008B701000850
:1000B000B7010008B7010008B7010008B701000840
:1000C000B7010008B7010008B7010008B701000830
:1000D000B7010008B7010008B7010008B701000820
:1000E000B7010008B7010008B7010008B701000810
:1000F000B7010008B7010008B7010008B701000800
:10010000B7010008B7010008B7010008B7010008EF
:10011000B7010008B7010008B7010008B7010008DF
:10012000B7010008B7010008B7010008B7010008CF
:10013000B7010008B7010008B7010008B7010008BF
:10014000B7010008B7010008B7010008B7010008AF
:10015000B7010008B7010008B7010008B70100089F
:10016000B7010008B7010008B7010008B70100088F
:10017000B7010008B7010008B7010008000000003F
:10018000B7010008B7010008DFF80CD000F07AF8DA
:10019000004800476119000878040020064880479D
:1001A00006480047FEE7FEE7FEE7FEE7FEE7FEE75C
:1001B000FEE7FEE7FEE7FEE73910000889010008C8
:1001C0002DE9F05F0546002092469B46884606468C
:1001D000814640241BE0284641464746224600F01F
:1001E00041F853465A46C01A914110D31146184659
:1001F000224600F028F82D1A67EB01084F462246E8
:100200000120002100F01FF817EB00094E41201ECD
:10021000A4F10104DFDC484631462A464346BDE8E6
:10022000F09FD2B201E000F8012B491EFBD27047CB
:100230000022F6E710B513460A4604461946FFF7B2
:10024000F0FF204610BD202A04DB203A00FA02F11C
:10025000002070479140C2F1200320FA03F31943B4
:1002600090407047202A04DB203A21FA02F0002156
:10027000704721FA02F3D040C2F1200291400843B6
:1002800019467047064C074D06E0E06840F0010350
:1002900094E8070098471034AC42F6D3FFF778FF94
:1002A000281A0008481A0008FEE77047002229B102
:1002B00001291AD002291BD04FF440720E490B6855
:1002C00023F440730B600B6813430B600A6822F041
:1002D000F8020A600A68022303EBC00002430A60C6
:1002E000086840F48030086070474FF48072E5E79A
:1002F0004FF40072E2E70000103C0240134801682E
:1003000089050FD5016821F400710160016841F48D
:1003100000610160016821F400610160016841F43D
:1003200000710160016849050FD5016821F4806101
:100330000160016841F480510160016821F480513D
:100340000160016841F4806101607047003C024037
:1003500008490A6822F440720A600A6842F00402FE
:100360000A600A684FF4803343EA002002430A60BF
:1003700070470000103C0240064A136823F44073A3
:10038000136013681360136843F001031360017076
:1003900070470000103C0240084910B50C6824F476
:1003A00040740C600C6844F440740C600C6844F0B9
:1003B00001040C600260436010BD0000103C02406C
:1003C000074A136823F440731360136843F480737F
:1003D0001360136843F0010313600180704700004D
:1003E000103C0240074A136823F4407313601368FB
:1003F00043F400731360136843F00103136001605A
:1004000070470000103C024017490868C2061748B0
:1004100005D5C26942F01002C26110220A600A6862
:10042000920605D5C26942F00802C26120220A6024
:100430000A68520605D5C26942F00402C261402230
:100440000A600A68120605D5C26942F00202C2615A
:1004500080220A600A68920705D5C26942F020022C
:10046000C2610220086070470C3C0240540000202A
:1004700070B5114904460020C86100F0BBF906467A
:100480000E4D09E0601C07D024B100F0B3F9801BC9
:10049000A04201D9032070BD2868C003F2D42868A7
:1004A000C00701D001202860286810F0F200F2D0C7
:1004B000FFF7AAFF012070BD540000200C3C024051
:1004C00070B5044600F096F90546601C02D0044859
:1004D0000078044400F08EF9401BA042FAD370BDAE
:1004E000000000202DE9F047044622480F46017E17
:1004F00001290AD00121804601764CF25039484644
:10050000FFF7B6FF020003D02FE00220BDE8F0871E
:100510004FF0FF3038602068174D012801D0A668E1
:100520001CE0207C6168FFF713FF4846FFF7A0FF3F
:100530000246286820F00400286014E0217C304640
:10054000FFF7B4FE4846FFF793FF0200286820F04B
:10055000FA00286001D03E6005E0761CD4E9021064
:100560000844B042EAD8FFF7C9FE002188F8181005
:100570001046CBE754000020103C024003480168BD
:1005800041F000410160002070470000103C024033
:100590002DE9F0471B4E05461446307E1F4689461E
:1005A000012808D0012030764CF250384046FFF741
:1005B0005FFF18B114E00220BDE8F0879DB1012D66
:1005C00016D0022D19D022463B464846FFF7E4FEDE
:1005D0004046FFF74DFF0C490A6822F001020A600D
:1005E00000213176E8E7E1B24846FFF7C5FEEFE7C4
:1005F000A1B24846FFF7E4FEEAE721464846FFF786
:10060000F1FEE5E754000020103C024007490020BD
:100610000A68002A09DA054A054B0C3A1360054BB3
:1006200013600968002900DA01207047103C02407D
:1006300023016745AB89EFCD2DE9F84FDFF87CB199
:1006400000224FF001084FF0030A4FF00F090BF1A1
:10065000040E00BF0B6808FA02F42340A3426ED1D7
:100660004D68022D01D0122D0ED1D50800EB850C5E
:10067000DCF820505607F70E09FA07F6B5430E6965
:10068000BE402E43CCF82060066855000F790AFA68
:1006900005FC07F0030726EA0C06AF403743076066
:1006A0004E68012E05D0022E03D0112E01D0122E3D
:1006B0000ED18668CF6826EA0C06AF4037438760C4
:1006C0004668A6430C79C4F3001494403443446054
:1006D000C6688C6826EA0C06AC403443C4604C689B
:1006E000E40065D5364C256845F4804525602468CE
:1006F00022F0030504F480440094324C2E19D6F8FD
:10070000084895072F0F09FA07F5AC432E4DA8426C
:1007100001D1002524E02D4DA84201D101251FE083
:100720002B4DA84201D102251AE02A4DA84201D141
:10073000032515E0284DA84202D1042510E037E03A
:10074000264DA84201D105250AE0254DA84201D138
:10075000062505E0234DA84201D1072500E0082524
:10076000BD402543C6F80858DBF800405D464E689A
:100770009C43F60300D51C432C60DEF80040754610
:100780004E689C43B60300D51C432C600B4D0835C6
:100790002C684E689C43F60200D51C432C60074D24
:1007A0000C352C684E689C43B60200D51C432C6067
:1007B000521C102AFFF44EAFBDE8F88F003C0140F8
:1007C0004438024000300140000002400004024072
:1007D00000080240000C02400010024000140240D9
:1007E00000180240001C02400069084000D00120AF
:1007F000704700000148806870470000000000203A
:10080000024881680278114481607047000000202E
:100810000B4810B5016841F400710160016841F4B2
:1008200080610160016841F480710160032000F083
:1008300061F8002000F006F800F024F8002010BD58
:10084000003C024070B50D4D04464FF47A71287893
:10085000B1FBF0F00A490968B1FBF0F000F0D4FAFE
:1008600048B9102C07D200222146501E00F022F871
:1008700000206C6070BD012070BD000000000020F1
:100880000C0000200A4808B5016841F4804101606D
:10089000006800F4804000900548001F016841F0A6
:1008A00080510160006800F08050009008BD000099
:1008B00044380240F0B40E4B1B680C46C3F30223CD
:1008C000C3F10705042D00D90425191D072901D2FC
:1008D000002300E0DB1E012606FA05F1491E214037
:1008E00099409E40761E16403143F0BC00F068BD32
:1008F0000CED00E0064900F0070208684FF6FF0320
:10090000184040EA0220034A104308607047000084
:100910000CED00E00000FA052DE9F0470E46050059
:1009200065D0DFF81481D8F80000F7B200F00F00AE
:10093000B04207D288F80070D8F8000000F00F002D
:10094000B04254D128683D4C810712D5400703D5E9
:10095000206840F4E05020602878000703D5206824
:1009600040F4604020602068A96820F0F00008434F
:1009700020602878C0072DD03049686808390128E0
:1009800012D0022813D0032811D009688907002942
:100990002DDA216821F0030101432160FFF72AFFCE
:1009A000814641F2883A0EE009688903EFE7096859
:1009B0008901ECE7FFF71EFFA0EB0901514502D9C1
:1009C0000320BDE8F0872068696800F00C00B0EBF8
:1009D000810FEFD1D8F80010404601F00F01B1426D
:1009E00007D90770006800F00F00B04201D0012065
:1009F000E7E72878400705D52068E96820F4E0504B
:100A0000084320602878000706D52068296920F46B
:100A1000604040EAC100206000F036F82168084AD2
:100A2000C1F30311515CC840064908600020FFF77C
:100A300009FF0020C5E70000003C024008380240E2
:100A4000101A00080C0000200448054900680968D5
:100A5000044AC1F38221515CC84070470C00002059
:100A600008380240201A000804480549006809684F
:100A7000044AC1F34231515CC84070470C00002069
:100A800008380240201A0008154810B5006810F018
:100A90000C02144813D01449042A0FD0082A0ED18E
:100AA0000F4C241F2268236802F03F025B0207D527
:100AB0002068C0F38810A0FB010106E0084610BDC5
:100AC0002168C1F38811A1FB00010023FFF778FB27
:100AD0002168C1F30141491C4900B0FBF1F010BD90
:100AE000083802400024F40040787D012DE9F84FD9
:100AF000050076D02878DFF8F8B2BE4CC00749D0A0
:100B0000DBF800105846C1F38101012908D00068C4
:100B1000C0F3810002280AD1201D0068400206D5DA
:100B20002068800336D568680028E2D032E0686823
:100B3000B0F5803F10D0B0F5A02F206810D020F481
:100B400080302060206820F4802020606868A0B198
:100B5000FFF750FE06460CE0206840F48030F4E7D2
:100B600040F480202060F7E7FFF744FE801B6428F4
:100B700073D820688003F7D50CE0FFF73BFE0646EC
:100B800005E000BFFFF736FE801B6428F0D8206820
:100B90008003F7D42878DFF8608280074FF00009DF
:100BA0003ED5DBF80010584611F00C0F09D0006854
:100BB000C0F3810002280BD18D48001F006840025D
:100BC00006D42068800715D5E868012809D111E00E
:100BD000E868B8B10120C8F80000FFF70BFE064630
:100BE00005E002E1FFF706FE801B0228C0D820685E
:100BF0008007F7D52068296920F0F80040EAC10095
:100C000020600DE0C8F80090FFF7F4FD064604E010
:100C1000FFF7F0FD801B02281FD820688007F7D45B
:100C20002878000722D5724E744869696C3671B114
:100C300001210160FFF7DEFD074604E0FFF7DAFD62
:100C4000C01B022809D830688007F7D50EE0C0F82D
:100C50000090FFF7CFFD074605E083E0FFF7CAFDF0
:100C6000C01B02287ED830688007F7D42878400758
:100C700068D5DFF87CA100270AF1380ADAF800000D
:100C8000C0000BD4DAF8001041F08051CAF800100F
:100C9000DAF80000012700F080500090584E3068CC
:100CA000C00510D4306840F480703060FFF7A2FDBA
:100CB000009005E0FFF79EFD0099401A022851D8E8
:100CC0003068C005F6D54A4EA868683601280FD0AE
:100CD0000528306810D020F001003060306820F026
:100CE00004003060A868B8B1FFF784FD00900FE001
:100CF000306840F00100F4E740F004003060F7E7AE
:100D0000FFF778FD0099411A41F28830814264D89A
:100D100030688007F4D50EE0FFF76CFD009007E027
:100D2000FFF768FD0099411A41F28830814254D89A
:100D300030688007F4D42FB1DAF8001021F0805128
:100D4000CAF80010A869C0B3DBF80010C1F3810134
:100D500002294AD00228484607D0C8F86000FFF7A9
:100D600049FD00E039E005463AE04746C8F8600032
:100D7000FFF740FD064604E0FFF73CFD801B02281C
:100D80002BD820688001F7D4D5E907010843A96A68
:100D90001C4A490802EB01416A6A41EA8211084390
:100DA00095F82C1040EA01611148001F01600120F4
:100DB0003866FFF71FFD054605E014E0FFF71AFD52
:100DC000401B022809D820688001F7D50BE000BF3E
:100DD000FFF710FD401B022802D90320BDE8F88F61
:100DE00020688001F4D40020F8E70120F6E7000035
:100DF000083802400038024000004742800E474257
:100E0000007000400000FFFF10B5401EB0F1807F71
:100E100001D3012010BD4FF0E02460610F21601765
:100E200000F0CEFA0020A06107202061002010BD54
:100E300070B5040004D094F83900002510B106E024
:100E4000012070BD84F83850204600F023F824209B
:100E500084F839002068C16821F40051C16020463F
:100E600000F014F92068016921F4904101612068C3
:100E7000416921F02A0141612068C16841F40051B3
:100E8000C160E563202084F8390084F83A0000202E
:100E900070BD000010B586B0044614216846FFF707
:100EA000C7F914492068884221D11348016841F0EC
:100EB00010010160006800F0100005900E48143821
:100EC000016841F0010101600068694600F001001D
:100ED00005904FF4C0600090022001900120029024
:100EE00003200390072004900448FFF7A5FB06B0F9
:100EF00010BD0000001001404438024000000240D4
:100F00002DE9F843044690F839001F4616460D4671
:100F1000202850D1A5B19EB194F8380001284AD0BC
:100F2000012084F838004FF00008C4F83C802120EC
:100F300084F83900FFF75EFCA6848146E68426E04B
:100F40000120BDE8F883E08C401EE084A0684B4699
:100F5000B0F5805F4FF000024FF08001204600970F
:100F600003D000F0E9F9E8B90DE000F0E5F9C8B9FF
:100F700028882168C0F308004860206908B16D1C0A
:100F800005E0AD1C03E0216815F8010B4860E08C1A
:100F90000028D8D14B46002240212046009700F07F
:100FA000CBF908B10320CCE7202084F8390084F87D
:100FB00038800020C5E70220C3E7FEE7FEE7704760
:100FC00070477047FFF71CBC10B592B030216846DF
:100FD000FFF72EF914210CA8FFF72AF91448002472
:100FE000016841F080510160006800F0805011906C
:100FF0001048016841F4804101600068069400F4E3
:101000008040119002200090012003901020049055
:101010006846FFF76BFD0F20CDE90C040E940F948A
:1010200000210CA81094FFF777FC12B010BD00004F
:1010300040380240007000401048016841F47001DF
:1010400001600F48016841F0010101600C4A002174
:101050000832116002680B4B1A400260031D0A4AF5
:101060001A60026822F48022026005480C30016098
:1010700002495806803908607047000088ED00E09A
:1010800000380240FFFFF6FE103000242DE9F04149
:10109000044600680169E26821F44051114301618E
:1010A0002169A068E2690843616911432268084325
:1010B000D16849F20C6399430143D16020684169CA
:1010C000A26921F4407111434161E2696425B2F5DE
:1010D000004F9748974922684FF032083FD08A4224
:1010E00001D082427CD1FFF7BFFC00EBC00101EBD5
:1010F000001061688900B0FBF1F6FFF7B5FC00EB6A
:10110000C00101EB001061688900B0FBF1F0B0FB99
:10111000F5F06FF01801484306EB800108EB011071
:10112000B0FBF5F000F0F006FFF79EFC00EBC0010D
:1011300001EB001061688900B0FBF1F0B0FBF5F045
:1011400006EB0016FFF790FC00EBC00101EB00106E
:1011500061688900B0FBF1F7FFF786FCD2E08A42B4
:1011600001D082423DD1FFF77FFC00EBC00101EBD3
:10117000001061684900B0FBF1F0B0FBF5F006012A
:10118000FFF772FC00EBC00101EB00106168490041
:10119000B0FBF1F7FFF768FC00EBC00101EB0010BA
:1011A00061684900B0FBF1F0B0FBF5F06FF0180199
:1011B000484307EB800108EBC100B0FBF5F000F0FD
:1011C000F80006EB4006FFF74FFC00EBC00101EB17
:1011D000001061684900B0FBF1F7FFF745FC3CE007
:1011E00055E0FFF731FC00EBC00101EB0010616836
:1011F0004900B0FBF1F0B0FBF5F00601FFF724FC6D
:1012000000EBC00101EB001061684900B0FBF1F791
:10121000FFF71AFC00EBC00101EB00106168490008
:10122000B0FBF1F0B0FBF5F06FF01801484307EBAD
:10123000800108EBC100B0FBF5F000F0F80006EB10
:101240004006FFF701FC00EBC00101EB00106168F4
:101250004900B0FBF1F7FFF7F7FB00EBC00101EB32
:10126000001061684900B0FBF1F0B0FBF5F06FF0E1
:101270001801484307EB800108EBC100B0FBF5F013
:1012800000F00700216830448860BDE8F081FFF776
:10129000DBFB00EBC00101EB001061688900B0FBD3
:1012A000F1F6FFF7D1FB00EBC00101EB0010616824
:1012B0008900B0FBF1F0B0FBF5F06FF01801484386
:1012C00006EB800108EB0110B0FBF5F000F0F00632
:1012D000FFF7BAFB00EBC00101EB00106168890069
:1012E000B0FBF1F0B0FBF5F006EB0016FFF7ACFB3E
:1012F00000EBC00101EB001061688900B0FBF1F761
:10130000FFF7A2FB00EBC00101EB00106168890050
:10131000B0FBF1F0B0FBF5F06FF01801484307EBBC
:10132000800108EB0110B0FBF5F000F00F00A9E719
:1013300000140140001001402DE9F0419846174685
:101340000E460446069D1DE0681C1BD02DB1FFF71C
:1013500051FAA0EB0800A84214D92068C16821F412
:10136000D071C1602068416921F0010141612020F4
:1013700084F8390084F83A00002084F8380003200B
:10138000BDE8F0812068006836EA000004D0002043
:10139000B842D9D00020F3E70120F9E7FEE70000CA
:1013A0000FB4054B10B503A9044A029800F028F8C1
:1013B00010BC5DF814FB0000491900081000002063
:1013C0000907090E002804DB00F1E02080F8001472
:1013D000704700F00F0000F1E02080F8141D704706
:1013E00002E008C8121F08C1002AFAD170477047EE
:1013F000002001E001C1121F002AFBD1704700004C
:101400002DE9FF4F8DB00F460546002606E0252842
:101410000BD0DDE90F1290476D1C761C2878002850
:10142000F5D111B03046BDE8F08F0024A246A146A8
:101430000122EC4900E0044315F8013F203B02FA89
:1014400003F00842F7D128782A2810D06FF02F0235
:101450002878A0F13001092914D80AEB8A0102EB9F
:10146000410144F0020400EB010A6D1CF0E701CFDA
:101470005FEA000A03D544F40054CAF1000A44F0BC
:1014800002046D1C28782E2817D115F8010F44F09E
:1014900004042A280ED06FF02F022878A0F1300122
:1014A00009290AD809EB890102EB410100EB010986
:1014B0006D1CF2E757F8049B6D1C28786C280FD040
:1014C00006DC4C2817D068280DD06A2814D104E017
:1014D000742810D07A280FD10DE044F400140AE0EB
:1014E00044F4801401E044F440146978814202D14C
:1014F00004F580146D1C6D1C2A786E2A1FD00CDC3C
:10150000632A31D004DC002A8BD0582A11D1A3E001
:10151000642A68D0692A0CD165E0732A2ED004DCD5
:101520006F2A73D0702A04D19BE0752A6FD0782A75
:101530006ED01046DDE90F129047761C50E1C4F3DF
:101540000250022806D0032809D0042801CF09D070
:10155000066045E101CFF117C0E9006140E101CF2C
:1015600006803DE106703BE117F8040B8DF80000A2
:1015700000208DF80100EB46012003E057F804BB82
:101580004FF0FF3061074FF0000102D40DE008F189
:101590000101884649450FDA8045F8DB1BF8081041
:1015A0000029F4D108E008F1010188468142FADB04
:1015B0001BF808100029F6D1DDE90F23AAEB08007B
:1015C0008146214600F036F9304400EB080604E07D
:1015D000DDE90F121BF8010B9047B8F10108F7D2B3
:1015E00021464846F7E00A21C4F302534FF0000BAE
:1015F0000891022B04D001CFC117032B09D00AE0B8
:10160000FF1D27F00707F7E8020108E032E01FE0BE
:1016100020E000B2C117042B01D140B2C117031E54
:1016200071F1000307DA4FF0000CD0EB0C006CEB0B
:1016300001012D2302E0230504D52B238DF824304E
:10164000012303E0E30701D02023F7E7984658E0A1
:101650000A2110E010210EE010204FF0000B08903E
:101660000CE010214FF0000B44F004044FF0080987
:10167000089103E008214FF0000B0891C4F30253D6
:10168000022B04D001CF0021032B06D006E0FF1D62
:1016900027F00707F7E8020103E080B2042B00D12E
:1016A000C0B24FF0000823072BD5702A07D0DDF811
:1016B00020C08CF0100C5CEA0B0C05D00EE040232F
:1016C0008DF82430012308E050EA010306D03023CE
:1016D0008DF824308DF8252002239846DDF820C0AF
:1016E0008CF0080C5CEA0B0C0BD150EA010301D121
:1016F000630706D530238DF824304FF00108A9F197
:101700000109582A04D038A20B9208AA0A920BE0C9
:101710003AA2F9E75B46089AFEF752FD0B9B9B5CE9
:101720000A9A521E0A92137050EA0102F2D10A98E4
:10173000ADEB000000F1200B600702D524F48034EB
:1017400001E04FF00109D94502DDA9EB0B0000E0F3
:10175000002000EB0B0141440890AAEB010AE003D2
:1017600006D4DDE90F232146504600F063F8064415
:101770004FF0000908E009A911F80900DDE90F128E
:10178000904709F10109761CC145F4DBE0030CD553
:10179000DDE90F232146504600F04CF8064404E0F2
:1017A000DDE90F1230209047761C0899481E0890FA
:1017B0000029F5DC08E00A980A990078491C0A918A
:1017C000DDE90F129047761CBBF10001ABF1010B74
:1017D000F1DC21465046DDE90F2300F019F80644FC
:1017E0006D1C1BE6092801003031323334353637A1
:1017F000383961626364656600000000303132335D
:1018000034353637383941424344454600000000FC
:101810002DE9F041044600251E461746880404D4ED
:1018200005E039462020B0476D1C641EF9D52846D6
:10183000BDE8F0812DE9F041044600251E469046A2
:10184000C80301D5302700E02027880404D505E02F
:1018500041463846B0476D1C641EF9D52846BDE8A0
:10186000F081000070B5094C094DE00602D109A0D5
:10187000FFF796FD216808A0FFF792FD241DAC42FA
:10188000F3D3BDE8704007A0FFF78ABD00800008D1
:1018900000C000080D0A00003078253038582C2090
:1018A000000000000D0A0D0A0000000070B586B0AF
:1018B000002405460594FEF7A9FE02210120CDE98A
:1018C00002100491009405A96846FEF70BFE48BB80
:1018D0001A49086820F480600860086820F40070E5
:1018E0000860086840F480500860086820F4805060
:1018F0000860086840F400600860086820F4006030
:101900000860086840F400700860086840F480606F
:1019100008600B4C0B4E2A46002321460220FEF79E
:1019200037FE20B1FEF72AFE012006B070BD241D4F
:10193000B442F0D3FEF722FE0020F6E7003C02405E
:101940000080000800C0000813B50A230122694680
:101950000248FFF7D5FA00981CBD000014000020D3
:1019600086B0FEF755FFFFF72FFB14216846FEF700
:101970005FFC21480024016841F00101016000681A
:101980001E4D00F0010005900120CDE90004022069
:10199000029069462846FEF74FFE1A49184808602B
:1019A0004FF4E130C1E901040C20CC60C1E90440EE
:1019B0008C610846CC61FFF73BFA134C134E0121B2
:1019C0002846FEF711FF0128F9D11420FEF778FD13
:1019D00001212846FEF708FF0128F0D1FFF742FF5A
:1019E0002046FFF763FFFFF73DFF3046FFF75EFF3E
:1019F000FFF738FFE3E70000303802400000024004
:101A0000001001401400002078563412EFCDAB894D
:101A1000000000000000000001020304060708099E
:101A2000000000000102030400C0000800000020C4
:101A300014000000E013000814C000081400002087
:101A400064040000F0130008000000000000000023
:101A50000000000000000000000000000000000086
:101A60000000000000000000000000000000000076
:101A70000000000000000000000000000000000066
:101A80000000000000000000000000000000000056
:1080000000112233445566778899AABBCCDDEEFF78
:1080100000112233445566778899AABBCCDDEEFF68
:108020000000000000000000000000000000000050
:108030000000000000000000000000000000000040
:108040000000000000000000000000000000000030
:108050000000000000000000000000000000000020
:10C000000100000010000000000000000024F40007
:04C01000000000002C
:040000050800018965
:00000001FF
